{"contracts/Wallet.sol":{"Wallet":{"abi":[{"inputs":[{"internalType":"address[]","name":"_owners","type":"address[]"}],"stateMutability":"nonpayable","type":"constructor"},{"inputs":[{"internalType":"address","name":"owner","type":"address"}],"name":"OwnableInvalidOwner","type":"error"},{"inputs":[{"internalType":"address","name":"account","type":"address"}],"name":"OwnableUnauthorizedAccount","type":"error"},{"anonymous":false,"inputs":[{"indexed":true,"internalType":"address","name":"owner","type":"address"},{"indexed":true,"internalType":"uint256","name":"txIndex","type":"uint256"}],"name":"ConfirmTransaction","type":"event"},{"anonymous":false,"inputs":[{"indexed":true,"internalType":"address","name":"owner","type":"address"},{"indexed":true,"internalType":"uint256","name":"txIndex","type":"uint256"}],"name":"ExecuteTransaction","type":"event"},{"anonymous":false,"inputs":[{"indexed":true,"internalType":"address","name":"owner","type":"address"},{"indexed":true,"internalType":"uint256","name":"txIndex","type":"uint256"},{"indexed":true,"internalType":"address","name":"to","type":"address"},{"indexed":false,"internalType":"uint256","name":"value","type":"uint256"}],"name":"GenerateTransaction","type":"event"},{"anonymous":false,"inputs":[{"indexed":true,"internalType":"address","name":"previousOwner","type":"address"},{"indexed":true,"internalType":"address","name":"newOwner","type":"address"}],"name":"OwnershipTransferred","type":"event"},{"inputs":[{"internalType":"uint256","name":"_txIndex","type":"uint256"}],"name":"confirmTransaction","outputs":[],"stateMutability":"nonpayable","type":"function"},{"inputs":[{"internalType":"address","name":"_to","type":"address"},{"internalType":"uint256","name":"_value","type":"uint256"}],"name":"generateTransaction","outputs":[],"stateMutability":"nonpayable","type":"function"},{"inputs":[],"name":"getAllTransactions","outputs":[{"internalType":"uint256","name":"length","type":"uint256"},{"components":[{"internalType":"address","name":"to","type":"address"},{"internalType":"uint256","name":"value","type":"uint256"},{"internalType":"bool","name":"executed","type":"bool"},{"internalType":"uint256","name":"numConfirmations","type":"uint256"}],"internalType":"struct Wallet.Transaction[]","name":"","type":"tuple[]"}],"stateMutability":"view","type":"function"},{"inputs":[],"name":"getOwners","outputs":[{"internalType":"address[]","name":"","type":"address[]"}],"stateMutability":"view","type":"function"},{"inputs":[{"internalType":"uint256","name":"_txIndex","type":"uint256"}],"name":"getTransaction","outputs":[{"internalType":"address","name":"to","type":"address"},{"internalType":"uint256","name":"value","type":"uint256"},{"internalType":"bool","name":"executed","type":"bool"},{"internalType":"uint256","name":"numConfirmations","type":"uint256"}],"stateMutability":"view","type":"function"},{"inputs":[{"internalType":"uint256","name":"","type":"uint256"},{"internalType":"address","name":"","type":"address"}],"name":"isConfirmed","outputs":[{"internalType":"bool","name":"","type":"bool"}],"stateMutability":"view","type":"function"},{"inputs":[],"name":"owner","outputs":[{"internalType":"address","name":"","type":"address"}],"stateMutability":"view","type":"function"},{"inputs":[],"name":"renounceOwnership","outputs":[],"stateMutability":"nonpayable","type":"function"},{"inputs":[{"internalType":"address","name":"newOwner","type":"address"}],"name":"transferOwnership","outputs":[],"stateMutability":"nonpayable","type":"function"}],"evm":{"bytecode":{"linkReferences":{},"object":"608060405234801562000010575f80fd5b50604051620023ad380380620023ad8339818101604052810190620000369190620007f7565b335f73ffffffffffffffffffffffffffffffffffffffff168173ffffffffffffffffffffffffffffffffffffffff1603620000aa575f6040517f1e4fbdf7000000000000000000000000000000000000000000000000000000008152600401620000a1919062000857565b60405180910390fd5b620000bb816200055560201b60201c565b50620000d867723a79958b9764b560c01b6200061660201b60201c565b620000f4674a962185cdb4222260c01b6200061660201b60201c565b6200011067910a191ddf116e3a60c01b6200061660201b60201c565b6200012c67768e564ba884209a60c01b6200061660201b60201c565b5f81511162000172576040517f08c379a00000000000000000000000000000000000000000000000000000000081526004016200016990620008d0565b60405180910390fd5b6200018e672ab27a46024831e460c01b6200061660201b60201c565b620001aa673bf69aeb3a250a3c60c01b6200061660201b60201c565b620001c6673dc454a694fc7e9d60c01b6200061660201b60201c565b5f5b81518110156200052957620001ee67478ecf3ee83e350f60c01b6200061660201b60201c565b6200020a674e918e4517cbb14560c01b6200061660201b60201c565b5f828281518110620002215762000220620008f0565b5b602002602001015190506200024767c57b4144a341239f60c01b6200061660201b60201c565b6200026367a1a2c6317d20652f60c01b6200061660201b60201c565b6200027f67c68ac802d63bf93f60c01b6200061660201b60201c565b5f73ffffffffffffffffffffffffffffffffffffffff168173ffffffffffffffffffffffffffffffffffffffff1603620002f0576040517f08c379a0000000000000000000000000000000000000000000000000000000008152600401620002e7906200096b565b60405180910390fd5b6200030c670f3c09106b40465760c01b6200061660201b60201c565b6200032867372860b6071dd4a760c01b6200061660201b60201c565b6200034467135ae3c9a77c770560c01b6200061660201b60201c565b6200036067ad3db739a802f5fd60c01b6200061660201b60201c565b60025f8273ffffffffffffffffffffffffffffffffffffffff1673ffffffffffffffffffffffffffffffffffffffff1681526020019081526020015f205f9054906101000a900460ff1615620003ed576040517f08c379a0000000000000000000000000000000000000000000000000000000008152600401620003e490620009d9565b60405180910390fd5b62000409672a313453d190619d60c01b6200061660201b60201c565b62000425679b6bce995081d09b60c01b6200061660201b60201c565b600160025f8373ffffffffffffffffffffffffffffffffffffffff1673ffffffffffffffffffffffffffffffffffffffff1681526020019081526020015f205f6101000a81548160ff02191690831515021790555062000496671f12f658f6200b4560c01b6200061660201b60201c565b620004b26724602ea0074a150f60c01b6200061660201b60201c565b600181908060018154018082558091505060019003905f5260205f20015f9091909190916101000a81548173ffffffffffffffffffffffffffffffffffffffff021916908373ffffffffffffffffffffffffffffffffffffffff160217905550508080620005209062000a2f565b915050620001c8565b5062000546678fc61b7d24ee03c960c01b6200061660201b60201c565b80516003819055505062000a7b565b5f805f9054906101000a900473ffffffffffffffffffffffffffffffffffffffff169050815f806101000a81548173ffffffffffffffffffffffffffffffffffffffff021916908373ffffffffffffffffffffffffffffffffffffffff1602179055508173ffffffffffffffffffffffffffffffffffffffff168173ffffffffffffffffffffffffffffffffffffffff167f8be0079c531659141344cd1fd0a4f28419497f9722a3daafe3b4186f6b6457e060405160405180910390a35050565b50565b5f604051905090565b5f80fd5b5f80fd5b5f80fd5b5f601f19601f8301169050919050565b7f4e487b71000000000000000000000000000000000000000000000000000000005f52604160045260245ffd5b62000676826200062e565b810181811067ffffffffffffffff821117156200069857620006976200063e565b5b80604052505050565b5f620006ac62000619565b9050620006ba82826200066b565b919050565b5f67ffffffffffffffff821115620006dc57620006db6200063e565b5b602082029050602081019050919050565b5f80fd5b5f73ffffffffffffffffffffffffffffffffffffffff82169050919050565b5f6200071c82620006f1565b9050919050565b6200072e8162000710565b811462000739575f80fd5b50565b5f815190506200074c8162000723565b92915050565b5f620007686200076284620006bf565b620006a1565b905080838252602082019050602084028301858111156200078e576200078d620006ed565b5b835b81811015620007bb5780620007a688826200073c565b84526020840193505060208101905062000790565b5050509392505050565b5f82601f830112620007dc57620007db6200062a565b5b8151620007ee84826020860162000752565b91505092915050565b5f602082840312156200080f576200080e62000622565b5b5f82015167ffffffffffffffff8111156200082f576200082e62000626565b5b6200083d84828501620007c5565b91505092915050565b620008518162000710565b82525050565b5f6020820190506200086c5f83018462000846565b92915050565b5f82825260208201905092915050565b7f4174206c65617374206f6e65206f776e657220726571756972656400000000005f82015250565b5f620008b8601b8362000872565b9150620008c58262000882565b602082019050919050565b5f6020820190508181035f830152620008e981620008aa565b9050919050565b7f4e487b71000000000000000000000000000000000000000000000000000000005f52603260045260245ffd5b7f496e76616c6964206f776e6572206164647265737300000000000000000000005f82015250565b5f6200095360158362000872565b915062000960826200091d565b602082019050919050565b5f6020820190508181035f830152620009848162000945565b9050919050565b7f4475706c6963617465206f776e657200000000000000000000000000000000005f82015250565b5f620009c1600f8362000872565b9150620009ce826200098b565b602082019050919050565b5f6020820190508181035f830152620009f281620009b3565b9050919050565b7f4e487b71000000000000000000000000000000000000000000000000000000005f52601160045260245ffd5b5f819050919050565b5f62000a3b8262000a26565b91507fffffffffffffffffffffffffffffffffffffffffffffffffffffffffffffffff820362000a705762000a6f620009f9565b5b600182019050919050565b6119248062000a895f395ff3fe608060405234801561000f575f80fd5b5060043610610091575f3560e01c806380f59a651161006457806380f59a651461010d5780638da5cb5b1461013d578063a0e67e2b1461015b578063c01a8c8414610179578063f2fde38b1461019557610091565b806327506f531461009557806333ea3dc8146100b4578063402d4fb4146100e7578063715018a614610103575b5f80fd5b61009d6101b1565b6040516100ab92919061139e565b60405180910390f35b6100ce60048036038101906100c991906113fa565b6102d8565b6040516100de9493929190611443565b60405180910390f35b61010160048036038101906100fc91906114b0565b6103b1565b005b61010b61058b565b005b610127600480360381019061012291906114ee565b61059e565b604051610134919061152c565b60405180910390f35b6101456105c8565b6040516101529190611545565b60405180910390f35b6101636105ef565b6040516101709190611606565b60405180910390f35b610193600480360381019061018e91906113fa565b6106b6565b005b6101af60048036038101906101aa9190611626565b610e3c565b005b5f60606101c8671cdd910a9208ff9860c01b610ec0565b6101dc6741589a5632f930b060c01b610ec0565b6101f06740434911049a523d60c01b610ec0565b600480549050600480805480602002602001604051908101604052809291908181526020015f905b828210156102ca578382905f5260205f2090600402016040518060800160405290815f82015f9054906101000a900473ffffffffffffffffffffffffffffffffffffffff1673ffffffffffffffffffffffffffffffffffffffff1673ffffffffffffffffffffffffffffffffffffffff16815260200160018201548152602001600282015f9054906101000a900460ff1615151515815260200160038201548152505081526020019060010190610218565b505050509050915091509091565b5f805f806102f067a9b61655238583da60c01b610ec0565b61030467bfdf227ff76a9f3b60c01b610ec0565b610318674c11aa6da3cec16c60c01b610ec0565b5f6004868154811061032d5761032c611651565b5b905f5260205f209060040201905061034f67c87995797604ecfc60c01b610ec0565b610363678e48ee44ac0bed9b60c01b610ec0565b805f015f9054906101000a900473ffffffffffffffffffffffffffffffffffffffff168160010154826002015f9054906101000a900460ff1683600301549450945094509450509193509193565b6103c5672198cab8d1d09f3060c01b610ec0565b6103d9676571594fadcddca560c01b610ec0565b6103ed6731edd9be12c487de60c01b610ec0565b5f600480549050905061040a678bf1ca29b119456160c01b610ec0565b61041e67484df524e51785c460c01b610ec0565b600460405180608001604052808573ffffffffffffffffffffffffffffffffffffffff1681526020018481526020015f151581526020015f815250908060018154018082558091505060019003905f5260205f2090600402015f909190919091505f820151815f015f6101000a81548173ffffffffffffffffffffffffffffffffffffffff021916908373ffffffffffffffffffffffffffffffffffffffff160217905550602082015181600101556040820151816002015f6101000a81548160ff02191690831515021790555060608201518160030155505061050c6790db9da387ae5e1760c01b610ec0565b6105206784b9ea4292909e8c60c01b610ec0565b8273ffffffffffffffffffffffffffffffffffffffff16813373ffffffffffffffffffffffffffffffffffffffff167f20e2aa5b328885c653f9a5186dc31820c228934bb356957318771d665ef0a3c38560405161057e919061167e565b60405180910390a4505050565b610593610ec3565b61059c5f610f4a565b565b6005602052815f5260405f20602052805f5260405f205f915091509054906101000a900460ff1681565b5f805f9054906101000a900473ffffffffffffffffffffffffffffffffffffffff16905090565b6060610605670b7db4508e7170e460c01b610ec0565b61061967922a3a2df1f9caca60c01b610ec0565b61062d6733e15ad1bebf043f60c01b610ec0565b60018054806020026020016040519081016040528092919081815260200182805480156106ac57602002820191905f5260205f20905b815f9054906101000a900473ffffffffffffffffffffffffffffffffffffffff1673ffffffffffffffffffffffffffffffffffffffff1681526020019060010190808311610663575b5050505050905090565b6106ca67d6d30251cf18729b60c01b610ec0565b336106df67c7f2eb683852f54960c01b610ec0565b6106f3672175c6031b5e7ea660c01b610ec0565b610707670f87f43f13c2b9b360c01b610ec0565b5f61071c677db7c4e9bd99fd3560c01b610ec0565b610730676221172ea29a099860c01b610ec0565b5f5b600180549050811015610841576107536771c66f83b327014660c01b610ec0565b6107676784300e491bd0d52260c01b610ec0565b8273ffffffffffffffffffffffffffffffffffffffff166001828154811061079257610791611651565b5b905f5260205f20015f9054906101000a900473ffffffffffffffffffffffffffffffffffffffff1673ffffffffffffffffffffffffffffffffffffffff160361081a576107e96760e0152d5c49da4760c01b610ec0565b6107fd67026dab7d35b8318160c01b610ec0565b6001915061081567eb3db01ef437236860c01b610ec0565b610841565b61082e6791999d88f81bb8c460c01b610ec0565b8080610839906116c4565b915050610732565b506108566778c2b929396db63960c01b610ec0565b61086a67cce38ce92401556b60c01b610ec0565b61087e6771916b59436ade5f60c01b610ec0565b806108be576040517f08c379a00000000000000000000000000000000000000000000000000000000081526004016108b590611765565b60405180910390fd5b6108d2678cd20dcd5208f92f60c01b610ec0565b6108e667cf1149b06bc0a39460c01b610ec0565b6108fa6716798f673f7aa09b60c01b610ec0565b61090e676c5e9e8575248fd560c01b610ec0565b82610923679c55b24221cfab4960c01b610ec0565b61093767af009159889dc9f160c01b610ec0565b61094b67b2688c919b8eab5a60c01b610ec0565b61095f67f3f9be1aed40831060c01b610ec0565b60048054905081106109a6576040517f08c379a000000000000000000000000000000000000000000000000000000000815260040161099d906117cd565b60405180910390fd5b6109ba67c22004f1ed60aba360c01b610ec0565b6109ce67fd2ef92499268c5260c01b610ec0565b6109e267da52e4dc706d2a8960c01b610ec0565b6109f6673a43525b835ea06660c01b610ec0565b83610a0b6773a43d3958418b5e60c01b610ec0565b610a1f67c3ccb73932f32d8e60c01b610ec0565b610a3367bf1a02b803c41aad60c01b610ec0565b610a47674f73d8339335850b60c01b610ec0565b60048181548110610a5b57610a5a611651565b5b905f5260205f2090600402016002015f9054906101000a900460ff1615610ab7576040517f08c379a0000000000000000000000000000000000000000000000000000000008152600401610aae90611835565b60405180910390fd5b610acb673c0a4d4bdce9ff5360c01b610ec0565b610adf6753c875f10c35e22360c01b610ec0565b610af3677724d257fa04a11c60c01b610ec0565b610b07671da6bf43d3f6a7a260c01b610ec0565b84610b1c67fdf86e165a45c49660c01b610ec0565b610b3067fb98d1be55b31e7e60c01b610ec0565b610b44676cb3ec68b99d073560c01b610ec0565b610b5867b3e24e247dc26cd560c01b610ec0565b60055f8281526020019081526020015f205f3373ffffffffffffffffffffffffffffffffffffffff1673ffffffffffffffffffffffffffffffffffffffff1681526020019081526020015f205f9054906101000a900460ff1615610bf1576040517f08c379a0000000000000000000000000000000000000000000000000000000008152600401610be89061189d565b60405180910390fd5b610c0567ea127ee498d01e6b60c01b610ec0565b610c1967dcbecd7b01a55bf960c01b610ec0565b610c2d6788bba90172c3ae2360c01b610ec0565b610c4167da2bdda3dac2af7b60c01b610ec0565b610c556744e17fb4f6f9777260c01b610ec0565b610c6967cd85b83fb079201b60c01b610ec0565b5f60048781548110610c7e57610c7d611651565b5b905f5260205f2090600402019050610ca067dde184fa7afde6d460c01b610ec0565b6001816003015f828254610cb491906118bb565b92505081905550610ccf67bc0e97350792703f60c01b610ec0565b600160055f8981526020019081526020015f205f3373ffffffffffffffffffffffffffffffffffffffff1673ffffffffffffffffffffffffffffffffffffffff1681526020019081526020015f205f6101000a81548160ff021916908315150217905550610d476701e0872067f6c0e660c01b610ec0565b610d5b67e5a852a8758f0c4b60c01b610ec0565b863373ffffffffffffffffffffffffffffffffffffffff167f5cbe105e36805f7820e291f799d5794ff948af2a5f664e580382defb6339004160405160405180910390a3610db3671ecbb4a2dc1a765160c01b610ec0565b610dc767cf7bd0b652b61c5660c01b610ec0565b600354816003015410610e1e57610de867385c2871d958a93b60c01b610ec0565b610dfc672a3ddbdccb026aa760c01b610ec0565b610e1067951e0ceb67e49cda60c01b610ec0565b610e198761100b565b610e33565b610e326751db7958679a2bbb60c01b610ec0565b5b50505050505050565b610e44610ec3565b5f73ffffffffffffffffffffffffffffffffffffffff168173ffffffffffffffffffffffffffffffffffffffff1603610eb4575f6040517f1e4fbdf7000000000000000000000000000000000000000000000000000000008152600401610eab9190611545565b60405180910390fd5b610ebd81610f4a565b50565b50565b610ecb61121c565b73ffffffffffffffffffffffffffffffffffffffff16610ee96105c8565b73ffffffffffffffffffffffffffffffffffffffff1614610f4857610f0c61121c565b6040517f118cdaa7000000000000000000000000000000000000000000000000000000008152600401610f3f9190611545565b60405180910390fd5b565b5f805f9054906101000a900473ffffffffffffffffffffffffffffffffffffffff169050815f806101000a81548173ffffffffffffffffffffffffffffffffffffffff021916908373ffffffffffffffffffffffffffffffffffffffff1602179055508173ffffffffffffffffffffffffffffffffffffffff168173ffffffffffffffffffffffffffffffffffffffff167f8be0079c531659141344cd1fd0a4f28419497f9722a3daafe3b4186f6b6457e060405160405180910390a35050565b61101f67374b3d4f7e8ce1c060c01b610ec0565b806110346773a43d3958418b5e60c01b610ec0565b61104867c3ccb73932f32d8e60c01b610ec0565b61105c67bf1a02b803c41aad60c01b610ec0565b611070674f73d8339335850b60c01b610ec0565b6004818154811061108457611083611651565b5b905f5260205f2090600402016002015f9054906101000a900460ff16156110e0576040517f08c379a00000000000000000000000000000000000000000000000000000000081526004016110d790611835565b60405180910390fd5b6110f4673c0a4d4bdce9ff5360c01b610ec0565b6111086753c875f10c35e22360c01b610ec0565b61111c675af869000d6c1ea160c01b610ec0565b611130679732c84fa50b058d60c01b610ec0565b6111446708133a07901ef1b960c01b610ec0565b6111586765d4d2b4bc494cc360c01b610ec0565b5f6004838154811061116d5761116c611651565b5b905f5260205f209060040201905061118f67cad9e72afeccb8dd60c01b610ec0565b6001816002015f6101000a81548160ff0219169083151502179055506111bf67ff0c6d8ba122350460c01b610ec0565b6111d3671c45bdae69c3613960c01b610ec0565b823373ffffffffffffffffffffffffffffffffffffffff167f5445f318f4f5fcfb66592e68e0cc5822aa15664039bd5f0ffde24c5a8142b1ac60405160405180910390a3505050565b5f33905090565b5f819050919050565b61123581611223565b82525050565b5f81519050919050565b5f82825260208201905092915050565b5f819050602082019050919050565b5f73ffffffffffffffffffffffffffffffffffffffff82169050919050565b5f61128d82611264565b9050919050565b61129d81611283565b82525050565b6112ac81611223565b82525050565b5f8115159050919050565b6112c6816112b2565b82525050565b608082015f8201516112e05f850182611294565b5060208201516112f360208501826112a3565b50604082015161130660408501826112bd565b50606082015161131960608501826112a3565b50505050565b5f61132a83836112cc565b60808301905092915050565b5f602082019050919050565b5f61134c8261123b565b6113568185611245565b935061136183611255565b805f5b83811015611391578151611378888261131f565b975061138383611336565b925050600181019050611364565b5085935050505092915050565b5f6040820190506113b15f83018561122c565b81810360208301526113c38184611342565b90509392505050565b5f80fd5b6113d981611223565b81146113e3575f80fd5b50565b5f813590506113f4816113d0565b92915050565b5f6020828403121561140f5761140e6113cc565b5b5f61141c848285016113e6565b91505092915050565b61142e81611283565b82525050565b61143d816112b2565b82525050565b5f6080820190506114565f830187611425565b611463602083018661122c565b6114706040830185611434565b61147d606083018461122c565b95945050505050565b61148f81611283565b8114611499575f80fd5b50565b5f813590506114aa81611486565b92915050565b5f80604083850312156114c6576114c56113cc565b5b5f6114d38582860161149c565b92505060206114e4858286016113e6565b9150509250929050565b5f8060408385031215611504576115036113cc565b5b5f611511858286016113e6565b92505060206115228582860161149c565b9150509250929050565b5f60208201905061153f5f830184611434565b92915050565b5f6020820190506115585f830184611425565b92915050565b5f81519050919050565b5f82825260208201905092915050565b5f819050602082019050919050565b5f6115928383611294565b60208301905092915050565b5f602082019050919050565b5f6115b48261155e565b6115be8185611568565b93506115c983611578565b805f5b838110156115f95781516115e08882611587565b97506115eb8361159e565b9250506001810190506115cc565b5085935050505092915050565b5f6020820190508181035f83015261161e81846115aa565b905092915050565b5f6020828403121561163b5761163a6113cc565b5b5f6116488482850161149c565b91505092915050565b7f4e487b71000000000000000000000000000000000000000000000000000000005f52603260045260245ffd5b5f6020820190506116915f83018461122c565b92915050565b7f4e487b71000000000000000000000000000000000000000000000000000000005f52601160045260245ffd5b5f6116ce82611223565b91507fffffffffffffffffffffffffffffffffffffffffffffffffffffffffffffffff8203611700576116ff611697565b5b600182019050919050565b5f82825260208201905092915050565b7f556e617574686f72697a6564206f7065726174696f6e2e0000000000000000005f82015250565b5f61174f60178361170b565b915061175a8261171b565b602082019050919050565b5f6020820190508181035f83015261177c81611743565b9050919050565b7f5472616e73616374696f6e20646f6573206e6f742065786973740000000000005f82015250565b5f6117b7601a8361170b565b91506117c282611783565b602082019050919050565b5f6020820190508181035f8301526117e4816117ab565b9050919050565b7f5472616e73616374696f6e20616c7265616479206578656375746564000000005f82015250565b5f61181f601c8361170b565b915061182a826117eb565b602082019050919050565b5f6020820190508181035f83015261184c81611813565b9050919050565b7f5472616e73616374696f6e20616c726561647920636f6e6669726d65640000005f82015250565b5f611887601d8361170b565b915061189282611853565b602082019050919050565b5f6020820190508181035f8301526118b48161187b565b9050919050565b5f6118c582611223565b91506118d083611223565b92508282019050808211156118e8576118e7611697565b5b9291505056fea2646970667358221220fb1f7b1dbd35a6cc0766fae309d55eef759f6bfca642bc42b6bf29989dafea8264736f6c63430008140033","opcodes":"PUSH1 0x80 PUSH1 0x40 MSTORE CALLVALUE DUP1 ISZERO PUSH3 0x10 JUMPI PUSH0 DUP1 REVERT JUMPDEST POP PUSH1 0x40 MLOAD PUSH3 0x23AD CODESIZE SUB DUP1 PUSH3 0x23AD DUP4 CODECOPY DUP2 DUP2 ADD PUSH1 0x40 MSTORE DUP2 ADD SWAP1 PUSH3 0x36 SWAP2 SWAP1 PUSH3 0x7F7 JUMP JUMPDEST CALLER PUSH0 PUSH20 0xFFFFFFFFFFFFFFFFFFFFFFFFFFFFFFFFFFFFFFFF AND DUP2 PUSH20 0xFFFFFFFFFFFFFFFFFFFFFFFFFFFFFFFFFFFFFFFF AND SUB PUSH3 0xAA JUMPI PUSH0 PUSH1 0x40 MLOAD PUSH32 0x1E4FBDF700000000000000000000000000000000000000000000000000000000 DUP2 MSTORE PUSH1 0x4 ADD PUSH3 0xA1 SWAP2 SWAP1 PUSH3 0x857 JUMP JUMPDEST PUSH1 0x40 MLOAD DUP1 SWAP2 SUB SWAP1 REVERT JUMPDEST PUSH3 0xBB DUP2 PUSH3 0x555 PUSH1 0x20 SHL PUSH1 0x20 SHR JUMP JUMPDEST POP PUSH3 0xD8 PUSH8 0x723A79958B9764B5 PUSH1 0xC0 SHL PUSH3 0x616 PUSH1 0x20 SHL PUSH1 0x20 SHR JUMP JUMPDEST PUSH3 0xF4 PUSH8 0x4A962185CDB42222 PUSH1 0xC0 SHL PUSH3 0x616 PUSH1 0x20 SHL PUSH1 0x20 SHR JUMP JUMPDEST PUSH3 0x110 PUSH8 0x910A191DDF116E3A PUSH1 0xC0 SHL PUSH3 0x616 PUSH1 0x20 SHL PUSH1 0x20 SHR JUMP JUMPDEST PUSH3 0x12C PUSH8 0x768E564BA884209A PUSH1 0xC0 SHL PUSH3 0x616 PUSH1 0x20 SHL PUSH1 0x20 SHR JUMP JUMPDEST PUSH0 DUP2 MLOAD GT PUSH3 0x172 JUMPI PUSH1 0x40 MLOAD PUSH32 0x8C379A000000000000000000000000000000000000000000000000000000000 DUP2 MSTORE PUSH1 0x4 ADD PUSH3 0x169 SWAP1 PUSH3 0x8D0 JUMP JUMPDEST PUSH1 0x40 MLOAD DUP1 SWAP2 SUB SWAP1 REVERT JUMPDEST PUSH3 0x18E PUSH8 0x2AB27A46024831E4 PUSH1 0xC0 SHL PUSH3 0x616 PUSH1 0x20 SHL PUSH1 0x20 SHR JUMP JUMPDEST PUSH3 0x1AA PUSH8 0x3BF69AEB3A250A3C PUSH1 0xC0 SHL PUSH3 0x616 PUSH1 0x20 SHL PUSH1 0x20 SHR JUMP JUMPDEST PUSH3 0x1C6 PUSH8 0x3DC454A694FC7E9D PUSH1 0xC0 SHL PUSH3 0x616 PUSH1 0x20 SHL PUSH1 0x20 SHR JUMP JUMPDEST PUSH0 JUMPDEST DUP2 MLOAD DUP2 LT ISZERO PUSH3 0x529 JUMPI PUSH3 0x1EE PUSH8 0x478ECF3EE83E350F PUSH1 0xC0 SHL PUSH3 0x616 PUSH1 0x20 SHL PUSH1 0x20 SHR JUMP JUMPDEST PUSH3 0x20A PUSH8 0x4E918E4517CBB145 PUSH1 0xC0 SHL PUSH3 0x616 PUSH1 0x20 SHL PUSH1 0x20 SHR JUMP JUMPDEST PUSH0 DUP3 DUP3 DUP2 MLOAD DUP2 LT PUSH3 0x221 JUMPI PUSH3 0x220 PUSH3 0x8F0 JUMP JUMPDEST JUMPDEST PUSH1 0x20 MUL PUSH1 0x20 ADD ADD MLOAD SWAP1 POP PUSH3 0x247 PUSH8 0xC57B4144A341239F PUSH1 0xC0 SHL PUSH3 0x616 PUSH1 0x20 SHL PUSH1 0x20 SHR JUMP JUMPDEST PUSH3 0x263 PUSH8 0xA1A2C6317D20652F PUSH1 0xC0 SHL PUSH3 0x616 PUSH1 0x20 SHL PUSH1 0x20 SHR JUMP JUMPDEST PUSH3 0x27F PUSH8 0xC68AC802D63BF93F PUSH1 0xC0 SHL PUSH3 0x616 PUSH1 0x20 SHL PUSH1 0x20 SHR JUMP JUMPDEST PUSH0 PUSH20 0xFFFFFFFFFFFFFFFFFFFFFFFFFFFFFFFFFFFFFFFF AND DUP2 PUSH20 0xFFFFFFFFFFFFFFFFFFFFFFFFFFFFFFFFFFFFFFFF AND SUB PUSH3 0x2F0 JUMPI PUSH1 0x40 MLOAD PUSH32 0x8C379A000000000000000000000000000000000000000000000000000000000 DUP2 MSTORE PUSH1 0x4 ADD PUSH3 0x2E7 SWAP1 PUSH3 0x96B JUMP JUMPDEST PUSH1 0x40 MLOAD DUP1 SWAP2 SUB SWAP1 REVERT JUMPDEST PUSH3 0x30C PUSH8 0xF3C09106B404657 PUSH1 0xC0 SHL PUSH3 0x616 PUSH1 0x20 SHL PUSH1 0x20 SHR JUMP JUMPDEST PUSH3 0x328 PUSH8 0x372860B6071DD4A7 PUSH1 0xC0 SHL PUSH3 0x616 PUSH1 0x20 SHL PUSH1 0x20 SHR JUMP JUMPDEST PUSH3 0x344 PUSH8 0x135AE3C9A77C7705 PUSH1 0xC0 SHL PUSH3 0x616 PUSH1 0x20 SHL PUSH1 0x20 SHR JUMP JUMPDEST PUSH3 0x360 PUSH8 0xAD3DB739A802F5FD PUSH1 0xC0 SHL PUSH3 0x616 PUSH1 0x20 SHL PUSH1 0x20 SHR JUMP JUMPDEST PUSH1 0x2 PUSH0 DUP3 PUSH20 0xFFFFFFFFFFFFFFFFFFFFFFFFFFFFFFFFFFFFFFFF AND PUSH20 0xFFFFFFFFFFFFFFFFFFFFFFFFFFFFFFFFFFFFFFFF AND DUP2 MSTORE PUSH1 0x20 ADD SWAP1 DUP2 MSTORE PUSH1 0x20 ADD PUSH0 KECCAK256 PUSH0 SWAP1 SLOAD SWAP1 PUSH2 0x100 EXP SWAP1 DIV PUSH1 0xFF AND ISZERO PUSH3 0x3ED JUMPI PUSH1 0x40 MLOAD PUSH32 0x8C379A000000000000000000000000000000000000000000000000000000000 DUP2 MSTORE PUSH1 0x4 ADD PUSH3 0x3E4 SWAP1 PUSH3 0x9D9 JUMP JUMPDEST PUSH1 0x40 MLOAD DUP1 SWAP2 SUB SWAP1 REVERT JUMPDEST PUSH3 0x409 PUSH8 0x2A313453D190619D PUSH1 0xC0 SHL PUSH3 0x616 PUSH1 0x20 SHL PUSH1 0x20 SHR JUMP JUMPDEST PUSH3 0x425 PUSH8 0x9B6BCE995081D09B PUSH1 0xC0 SHL PUSH3 0x616 PUSH1 0x20 SHL PUSH1 0x20 SHR JUMP JUMPDEST PUSH1 0x1 PUSH1 0x2 PUSH0 DUP4 PUSH20 0xFFFFFFFFFFFFFFFFFFFFFFFFFFFFFFFFFFFFFFFF AND PUSH20 0xFFFFFFFFFFFFFFFFFFFFFFFFFFFFFFFFFFFFFFFF AND DUP2 MSTORE PUSH1 0x20 ADD SWAP1 DUP2 MSTORE PUSH1 0x20 ADD PUSH0 KECCAK256 PUSH0 PUSH2 0x100 EXP DUP2 SLOAD DUP2 PUSH1 0xFF MUL NOT AND SWAP1 DUP4 ISZERO ISZERO MUL OR SWAP1 SSTORE POP PUSH3 0x496 PUSH8 0x1F12F658F6200B45 PUSH1 0xC0 SHL PUSH3 0x616 PUSH1 0x20 SHL PUSH1 0x20 SHR JUMP JUMPDEST PUSH3 0x4B2 PUSH8 0x24602EA0074A150F PUSH1 0xC0 SHL PUSH3 0x616 PUSH1 0x20 SHL PUSH1 0x20 SHR JUMP JUMPDEST PUSH1 0x1 DUP2 SWAP1 DUP1 PUSH1 0x1 DUP2 SLOAD ADD DUP1 DUP3 SSTORE DUP1 SWAP2 POP POP PUSH1 0x1 SWAP1 SUB SWAP1 PUSH0 MSTORE PUSH1 0x20 PUSH0 KECCAK256 ADD PUSH0 SWAP1 SWAP2 SWAP1 SWAP2 SWAP1 SWAP2 PUSH2 0x100 EXP DUP2 SLOAD DUP2 PUSH20 0xFFFFFFFFFFFFFFFFFFFFFFFFFFFFFFFFFFFFFFFF MUL NOT AND SWAP1 DUP4 PUSH20 0xFFFFFFFFFFFFFFFFFFFFFFFFFFFFFFFFFFFFFFFF AND MUL OR SWAP1 SSTORE POP POP DUP1 DUP1 PUSH3 0x520 SWAP1 PUSH3 0xA2F JUMP JUMPDEST SWAP2 POP POP PUSH3 0x1C8 JUMP JUMPDEST POP PUSH3 0x546 PUSH8 0x8FC61B7D24EE03C9 PUSH1 0xC0 SHL PUSH3 0x616 PUSH1 0x20 SHL PUSH1 0x20 SHR JUMP JUMPDEST DUP1 MLOAD PUSH1 0x3 DUP2 SWAP1 SSTORE POP POP PUSH3 0xA7B JUMP JUMPDEST PUSH0 DUP1 PUSH0 SWAP1 SLOAD SWAP1 PUSH2 0x100 EXP SWAP1 DIV PUSH20 0xFFFFFFFFFFFFFFFFFFFFFFFFFFFFFFFFFFFFFFFF AND SWAP1 POP DUP2 PUSH0 DUP1 PUSH2 0x100 EXP DUP2 SLOAD DUP2 PUSH20 0xFFFFFFFFFFFFFFFFFFFFFFFFFFFFFFFFFFFFFFFF MUL NOT AND SWAP1 DUP4 PUSH20 0xFFFFFFFFFFFFFFFFFFFFFFFFFFFFFFFFFFFFFFFF AND MUL OR SWAP1 SSTORE POP DUP2 PUSH20 0xFFFFFFFFFFFFFFFFFFFFFFFFFFFFFFFFFFFFFFFF AND DUP2 PUSH20 0xFFFFFFFFFFFFFFFFFFFFFFFFFFFFFFFFFFFFFFFF AND PUSH32 0x8BE0079C531659141344CD1FD0A4F28419497F9722A3DAAFE3B4186F6B6457E0 PUSH1 0x40 MLOAD PUSH1 0x40 MLOAD DUP1 SWAP2 SUB SWAP1 LOG3 POP POP JUMP JUMPDEST POP JUMP JUMPDEST PUSH0 PUSH1 0x40 MLOAD SWAP1 POP SWAP1 JUMP JUMPDEST PUSH0 DUP1 REVERT JUMPDEST PUSH0 DUP1 REVERT JUMPDEST PUSH0 DUP1 REVERT JUMPDEST PUSH0 PUSH1 0x1F NOT PUSH1 0x1F DUP4 ADD AND SWAP1 POP SWAP2 SWAP1 POP JUMP JUMPDEST PUSH32 0x4E487B7100000000000000000000000000000000000000000000000000000000 PUSH0 MSTORE PUSH1 0x41 PUSH1 0x4 MSTORE PUSH1 0x24 PUSH0 REVERT JUMPDEST PUSH3 0x676 DUP3 PUSH3 0x62E JUMP JUMPDEST DUP2 ADD DUP2 DUP2 LT PUSH8 0xFFFFFFFFFFFFFFFF DUP3 GT OR ISZERO PUSH3 0x698 JUMPI PUSH3 0x697 PUSH3 0x63E JUMP JUMPDEST JUMPDEST DUP1 PUSH1 0x40 MSTORE POP POP POP JUMP JUMPDEST PUSH0 PUSH3 0x6AC PUSH3 0x619 JUMP JUMPDEST SWAP1 POP PUSH3 0x6BA DUP3 DUP3 PUSH3 0x66B JUMP JUMPDEST SWAP2 SWAP1 POP JUMP JUMPDEST PUSH0 PUSH8 0xFFFFFFFFFFFFFFFF DUP3 GT ISZERO PUSH3 0x6DC JUMPI PUSH3 0x6DB PUSH3 0x63E JUMP JUMPDEST JUMPDEST PUSH1 0x20 DUP3 MUL SWAP1 POP PUSH1 0x20 DUP2 ADD SWAP1 POP SWAP2 SWAP1 POP JUMP JUMPDEST PUSH0 DUP1 REVERT JUMPDEST PUSH0 PUSH20 0xFFFFFFFFFFFFFFFFFFFFFFFFFFFFFFFFFFFFFFFF DUP3 AND SWAP1 POP SWAP2 SWAP1 POP JUMP JUMPDEST PUSH0 PUSH3 0x71C DUP3 PUSH3 0x6F1 JUMP JUMPDEST SWAP1 POP SWAP2 SWAP1 POP JUMP JUMPDEST PUSH3 0x72E DUP2 PUSH3 0x710 JUMP JUMPDEST DUP2 EQ PUSH3 0x739 JUMPI PUSH0 DUP1 REVERT JUMPDEST POP JUMP JUMPDEST PUSH0 DUP2 MLOAD SWAP1 POP PUSH3 0x74C DUP2 PUSH3 0x723 JUMP JUMPDEST SWAP3 SWAP2 POP POP JUMP JUMPDEST PUSH0 PUSH3 0x768 PUSH3 0x762 DUP5 PUSH3 0x6BF JUMP JUMPDEST PUSH3 0x6A1 JUMP JUMPDEST SWAP1 POP DUP1 DUP4 DUP3 MSTORE PUSH1 0x20 DUP3 ADD SWAP1 POP PUSH1 0x20 DUP5 MUL DUP4 ADD DUP6 DUP2 GT ISZERO PUSH3 0x78E JUMPI PUSH3 0x78D PUSH3 0x6ED JUMP JUMPDEST JUMPDEST DUP4 JUMPDEST DUP2 DUP2 LT ISZERO PUSH3 0x7BB JUMPI DUP1 PUSH3 0x7A6 DUP9 DUP3 PUSH3 0x73C JUMP JUMPDEST DUP5 MSTORE PUSH1 0x20 DUP5 ADD SWAP4 POP POP PUSH1 0x20 DUP2 ADD SWAP1 POP PUSH3 0x790 JUMP JUMPDEST POP POP POP SWAP4 SWAP3 POP POP POP JUMP JUMPDEST PUSH0 DUP3 PUSH1 0x1F DUP4 ADD SLT PUSH3 0x7DC JUMPI PUSH3 0x7DB PUSH3 0x62A JUMP JUMPDEST JUMPDEST DUP2 MLOAD PUSH3 0x7EE DUP5 DUP3 PUSH1 0x20 DUP7 ADD PUSH3 0x752 JUMP JUMPDEST SWAP2 POP POP SWAP3 SWAP2 POP POP JUMP JUMPDEST PUSH0 PUSH1 0x20 DUP3 DUP5 SUB SLT ISZERO PUSH3 0x80F JUMPI PUSH3 0x80E PUSH3 0x622 JUMP JUMPDEST JUMPDEST PUSH0 DUP3 ADD MLOAD PUSH8 0xFFFFFFFFFFFFFFFF DUP2 GT ISZERO PUSH3 0x82F JUMPI PUSH3 0x82E PUSH3 0x626 JUMP JUMPDEST JUMPDEST PUSH3 0x83D DUP5 DUP3 DUP6 ADD PUSH3 0x7C5 JUMP JUMPDEST SWAP2 POP POP SWAP3 SWAP2 POP POP JUMP JUMPDEST PUSH3 0x851 DUP2 PUSH3 0x710 JUMP JUMPDEST DUP3 MSTORE POP POP JUMP JUMPDEST PUSH0 PUSH1 0x20 DUP3 ADD SWAP1 POP PUSH3 0x86C PUSH0 DUP4 ADD DUP5 PUSH3 0x846 JUMP JUMPDEST SWAP3 SWAP2 POP POP JUMP JUMPDEST PUSH0 DUP3 DUP3 MSTORE PUSH1 0x20 DUP3 ADD SWAP1 POP SWAP3 SWAP2 POP POP JUMP JUMPDEST PUSH32 0x4174206C65617374206F6E65206F776E65722072657175697265640000000000 PUSH0 DUP3 ADD MSTORE POP JUMP JUMPDEST PUSH0 PUSH3 0x8B8 PUSH1 0x1B DUP4 PUSH3 0x872 JUMP JUMPDEST SWAP2 POP PUSH3 0x8C5 DUP3 PUSH3 0x882 JUMP JUMPDEST PUSH1 0x20 DUP3 ADD SWAP1 POP SWAP2 SWAP1 POP JUMP JUMPDEST PUSH0 PUSH1 0x20 DUP3 ADD SWAP1 POP DUP2 DUP2 SUB PUSH0 DUP4 ADD MSTORE PUSH3 0x8E9 DUP2 PUSH3 0x8AA JUMP JUMPDEST SWAP1 POP SWAP2 SWAP1 POP JUMP JUMPDEST PUSH32 0x4E487B7100000000000000000000000000000000000000000000000000000000 PUSH0 MSTORE PUSH1 0x32 PUSH1 0x4 MSTORE PUSH1 0x24 PUSH0 REVERT JUMPDEST PUSH32 0x496E76616C6964206F776E657220616464726573730000000000000000000000 PUSH0 DUP3 ADD MSTORE POP JUMP JUMPDEST PUSH0 PUSH3 0x953 PUSH1 0x15 DUP4 PUSH3 0x872 JUMP JUMPDEST SWAP2 POP PUSH3 0x960 DUP3 PUSH3 0x91D JUMP JUMPDEST PUSH1 0x20 DUP3 ADD SWAP1 POP SWAP2 SWAP1 POP JUMP JUMPDEST PUSH0 PUSH1 0x20 DUP3 ADD SWAP1 POP DUP2 DUP2 SUB PUSH0 DUP4 ADD MSTORE PUSH3 0x984 DUP2 PUSH3 0x945 JUMP JUMPDEST SWAP1 POP SWAP2 SWAP1 POP JUMP JUMPDEST PUSH32 0x4475706C6963617465206F776E65720000000000000000000000000000000000 PUSH0 DUP3 ADD MSTORE POP JUMP JUMPDEST PUSH0 PUSH3 0x9C1 PUSH1 0xF DUP4 PUSH3 0x872 JUMP JUMPDEST SWAP2 POP PUSH3 0x9CE DUP3 PUSH3 0x98B JUMP JUMPDEST PUSH1 0x20 DUP3 ADD SWAP1 POP SWAP2 SWAP1 POP JUMP JUMPDEST PUSH0 PUSH1 0x20 DUP3 ADD SWAP1 POP DUP2 DUP2 SUB PUSH0 DUP4 ADD MSTORE PUSH3 0x9F2 DUP2 PUSH3 0x9B3 JUMP JUMPDEST SWAP1 POP SWAP2 SWAP1 POP JUMP JUMPDEST PUSH32 0x4E487B7100000000000000000000000000000000000000000000000000000000 PUSH0 MSTORE PUSH1 0x11 PUSH1 0x4 MSTORE PUSH1 0x24 PUSH0 REVERT JUMPDEST PUSH0 DUP2 SWAP1 POP SWAP2 SWAP1 POP JUMP JUMPDEST PUSH0 PUSH3 0xA3B DUP3 PUSH3 0xA26 JUMP JUMPDEST SWAP2 POP PUSH32 0xFFFFFFFFFFFFFFFFFFFFFFFFFFFFFFFFFFFFFFFFFFFFFFFFFFFFFFFFFFFFFFFF DUP3 SUB PUSH3 0xA70 JUMPI PUSH3 0xA6F PUSH3 0x9F9 JUMP JUMPDEST JUMPDEST PUSH1 0x1 DUP3 ADD SWAP1 POP SWAP2 SWAP1 POP JUMP JUMPDEST PUSH2 0x1924 DUP1 PUSH3 0xA89 PUSH0 CODECOPY PUSH0 RETURN INVALID PUSH1 0x80 PUSH1 0x40 MSTORE CALLVALUE DUP1 ISZERO PUSH2 0xF JUMPI PUSH0 DUP1 REVERT JUMPDEST POP PUSH1 0x4 CALLDATASIZE LT PUSH2 0x91 JUMPI PUSH0 CALLDATALOAD PUSH1 0xE0 SHR DUP1 PUSH4 0x80F59A65 GT PUSH2 0x64 JUMPI DUP1 PUSH4 0x80F59A65 EQ PUSH2 0x10D JUMPI DUP1 PUSH4 0x8DA5CB5B EQ PUSH2 0x13D JUMPI DUP1 PUSH4 0xA0E67E2B EQ PUSH2 0x15B JUMPI DUP1 PUSH4 0xC01A8C84 EQ PUSH2 0x179 JUMPI DUP1 PUSH4 0xF2FDE38B EQ PUSH2 0x195 JUMPI PUSH2 0x91 JUMP JUMPDEST DUP1 PUSH4 0x27506F53 EQ PUSH2 0x95 JUMPI DUP1 PUSH4 0x33EA3DC8 EQ PUSH2 0xB4 JUMPI DUP1 PUSH4 0x402D4FB4 EQ PUSH2 0xE7 JUMPI DUP1 PUSH4 0x715018A6 EQ PUSH2 0x103 JUMPI JUMPDEST PUSH0 DUP1 REVERT JUMPDEST PUSH2 0x9D PUSH2 0x1B1 JUMP JUMPDEST PUSH1 0x40 MLOAD PUSH2 0xAB SWAP3 SWAP2 SWAP1 PUSH2 0x139E JUMP JUMPDEST PUSH1 0x40 MLOAD DUP1 SWAP2 SUB SWAP1 RETURN JUMPDEST PUSH2 0xCE PUSH1 0x4 DUP1 CALLDATASIZE SUB DUP2 ADD SWAP1 PUSH2 0xC9 SWAP2 SWAP1 PUSH2 0x13FA JUMP JUMPDEST PUSH2 0x2D8 JUMP JUMPDEST PUSH1 0x40 MLOAD PUSH2 0xDE SWAP5 SWAP4 SWAP3 SWAP2 SWAP1 PUSH2 0x1443 JUMP JUMPDEST PUSH1 0x40 MLOAD DUP1 SWAP2 SUB SWAP1 RETURN JUMPDEST PUSH2 0x101 PUSH1 0x4 DUP1 CALLDATASIZE SUB DUP2 ADD SWAP1 PUSH2 0xFC SWAP2 SWAP1 PUSH2 0x14B0 JUMP JUMPDEST PUSH2 0x3B1 JUMP JUMPDEST STOP JUMPDEST PUSH2 0x10B PUSH2 0x58B JUMP JUMPDEST STOP JUMPDEST PUSH2 0x127 PUSH1 0x4 DUP1 CALLDATASIZE SUB DUP2 ADD SWAP1 PUSH2 0x122 SWAP2 SWAP1 PUSH2 0x14EE JUMP JUMPDEST PUSH2 0x59E JUMP JUMPDEST PUSH1 0x40 MLOAD PUSH2 0x134 SWAP2 SWAP1 PUSH2 0x152C JUMP JUMPDEST PUSH1 0x40 MLOAD DUP1 SWAP2 SUB SWAP1 RETURN JUMPDEST PUSH2 0x145 PUSH2 0x5C8 JUMP JUMPDEST PUSH1 0x40 MLOAD PUSH2 0x152 SWAP2 SWAP1 PUSH2 0x1545 JUMP JUMPDEST PUSH1 0x40 MLOAD DUP1 SWAP2 SUB SWAP1 RETURN JUMPDEST PUSH2 0x163 PUSH2 0x5EF JUMP JUMPDEST PUSH1 0x40 MLOAD PUSH2 0x170 SWAP2 SWAP1 PUSH2 0x1606 JUMP JUMPDEST PUSH1 0x40 MLOAD DUP1 SWAP2 SUB SWAP1 RETURN JUMPDEST PUSH2 0x193 PUSH1 0x4 DUP1 CALLDATASIZE SUB DUP2 ADD SWAP1 PUSH2 0x18E SWAP2 SWAP1 PUSH2 0x13FA JUMP JUMPDEST PUSH2 0x6B6 JUMP JUMPDEST STOP JUMPDEST PUSH2 0x1AF PUSH1 0x4 DUP1 CALLDATASIZE SUB DUP2 ADD SWAP1 PUSH2 0x1AA SWAP2 SWAP1 PUSH2 0x1626 JUMP JUMPDEST PUSH2 0xE3C JUMP JUMPDEST STOP JUMPDEST PUSH0 PUSH1 0x60 PUSH2 0x1C8 PUSH8 0x1CDD910A9208FF98 PUSH1 0xC0 SHL PUSH2 0xEC0 JUMP JUMPDEST PUSH2 0x1DC PUSH8 0x41589A5632F930B0 PUSH1 0xC0 SHL PUSH2 0xEC0 JUMP JUMPDEST PUSH2 0x1F0 PUSH8 0x40434911049A523D PUSH1 0xC0 SHL PUSH2 0xEC0 JUMP JUMPDEST PUSH1 0x4 DUP1 SLOAD SWAP1 POP PUSH1 0x4 DUP1 DUP1 SLOAD DUP1 PUSH1 0x20 MUL PUSH1 0x20 ADD PUSH1 0x40 MLOAD SWAP1 DUP2 ADD PUSH1 0x40 MSTORE DUP1 SWAP3 SWAP2 SWAP1 DUP2 DUP2 MSTORE PUSH1 0x20 ADD PUSH0 SWAP1 JUMPDEST DUP3 DUP3 LT ISZERO PUSH2 0x2CA JUMPI DUP4 DUP3 SWAP1 PUSH0 MSTORE PUSH1 0x20 PUSH0 KECCAK256 SWAP1 PUSH1 0x4 MUL ADD PUSH1 0x40 MLOAD DUP1 PUSH1 0x80 ADD PUSH1 0x40 MSTORE SWAP1 DUP2 PUSH0 DUP3 ADD PUSH0 SWAP1 SLOAD SWAP1 PUSH2 0x100 EXP SWAP1 DIV PUSH20 0xFFFFFFFFFFFFFFFFFFFFFFFFFFFFFFFFFFFFFFFF AND PUSH20 0xFFFFFFFFFFFFFFFFFFFFFFFFFFFFFFFFFFFFFFFF AND PUSH20 0xFFFFFFFFFFFFFFFFFFFFFFFFFFFFFFFFFFFFFFFF AND DUP2 MSTORE PUSH1 0x20 ADD PUSH1 0x1 DUP3 ADD SLOAD DUP2 MSTORE PUSH1 0x20 ADD PUSH1 0x2 DUP3 ADD PUSH0 SWAP1 SLOAD SWAP1 PUSH2 0x100 EXP SWAP1 DIV PUSH1 0xFF AND ISZERO ISZERO ISZERO ISZERO DUP2 MSTORE PUSH1 0x20 ADD PUSH1 0x3 DUP3 ADD SLOAD DUP2 MSTORE POP POP DUP2 MSTORE PUSH1 0x20 ADD SWAP1 PUSH1 0x1 ADD SWAP1 PUSH2 0x218 JUMP JUMPDEST POP POP POP POP SWAP1 POP SWAP2 POP SWAP2 POP SWAP1 SWAP2 JUMP JUMPDEST PUSH0 DUP1 PUSH0 DUP1 PUSH2 0x2F0 PUSH8 0xA9B61655238583DA PUSH1 0xC0 SHL PUSH2 0xEC0 JUMP JUMPDEST PUSH2 0x304 PUSH8 0xBFDF227FF76A9F3B PUSH1 0xC0 SHL PUSH2 0xEC0 JUMP JUMPDEST PUSH2 0x318 PUSH8 0x4C11AA6DA3CEC16C PUSH1 0xC0 SHL PUSH2 0xEC0 JUMP JUMPDEST PUSH0 PUSH1 0x4 DUP7 DUP2 SLOAD DUP2 LT PUSH2 0x32D JUMPI PUSH2 0x32C PUSH2 0x1651 JUMP JUMPDEST JUMPDEST SWAP1 PUSH0 MSTORE PUSH1 0x20 PUSH0 KECCAK256 SWAP1 PUSH1 0x4 MUL ADD SWAP1 POP PUSH2 0x34F PUSH8 0xC87995797604ECFC PUSH1 0xC0 SHL PUSH2 0xEC0 JUMP JUMPDEST PUSH2 0x363 PUSH8 0x8E48EE44AC0BED9B PUSH1 0xC0 SHL PUSH2 0xEC0 JUMP JUMPDEST DUP1 PUSH0 ADD PUSH0 SWAP1 SLOAD SWAP1 PUSH2 0x100 EXP SWAP1 DIV PUSH20 0xFFFFFFFFFFFFFFFFFFFFFFFFFFFFFFFFFFFFFFFF AND DUP2 PUSH1 0x1 ADD SLOAD DUP3 PUSH1 0x2 ADD PUSH0 SWAP1 SLOAD SWAP1 PUSH2 0x100 EXP SWAP1 DIV PUSH1 0xFF AND DUP4 PUSH1 0x3 ADD SLOAD SWAP5 POP SWAP5 POP SWAP5 POP SWAP5 POP POP SWAP2 SWAP4 POP SWAP2 SWAP4 JUMP JUMPDEST PUSH2 0x3C5 PUSH8 0x2198CAB8D1D09F30 PUSH1 0xC0 SHL PUSH2 0xEC0 JUMP JUMPDEST PUSH2 0x3D9 PUSH8 0x6571594FADCDDCA5 PUSH1 0xC0 SHL PUSH2 0xEC0 JUMP JUMPDEST PUSH2 0x3ED PUSH8 0x31EDD9BE12C487DE PUSH1 0xC0 SHL PUSH2 0xEC0 JUMP JUMPDEST PUSH0 PUSH1 0x4 DUP1 SLOAD SWAP1 POP SWAP1 POP PUSH2 0x40A PUSH8 0x8BF1CA29B1194561 PUSH1 0xC0 SHL PUSH2 0xEC0 JUMP JUMPDEST PUSH2 0x41E PUSH8 0x484DF524E51785C4 PUSH1 0xC0 SHL PUSH2 0xEC0 JUMP JUMPDEST PUSH1 0x4 PUSH1 0x40 MLOAD DUP1 PUSH1 0x80 ADD PUSH1 0x40 MSTORE DUP1 DUP6 PUSH20 0xFFFFFFFFFFFFFFFFFFFFFFFFFFFFFFFFFFFFFFFF AND DUP2 MSTORE PUSH1 0x20 ADD DUP5 DUP2 MSTORE PUSH1 0x20 ADD PUSH0 ISZERO ISZERO DUP2 MSTORE PUSH1 0x20 ADD PUSH0 DUP2 MSTORE POP SWAP1 DUP1 PUSH1 0x1 DUP2 SLOAD ADD DUP1 DUP3 SSTORE DUP1 SWAP2 POP POP PUSH1 0x1 SWAP1 SUB SWAP1 PUSH0 MSTORE PUSH1 0x20 PUSH0 KECCAK256 SWAP1 PUSH1 0x4 MUL ADD PUSH0 SWAP1 SWAP2 SWAP1 SWAP2 SWAP1 SWAP2 POP PUSH0 DUP3 ADD MLOAD DUP2 PUSH0 ADD PUSH0 PUSH2 0x100 EXP DUP2 SLOAD DUP2 PUSH20 0xFFFFFFFFFFFFFFFFFFFFFFFFFFFFFFFFFFFFFFFF MUL NOT AND SWAP1 DUP4 PUSH20 0xFFFFFFFFFFFFFFFFFFFFFFFFFFFFFFFFFFFFFFFF AND MUL OR SWAP1 SSTORE POP PUSH1 0x20 DUP3 ADD MLOAD DUP2 PUSH1 0x1 ADD SSTORE PUSH1 0x40 DUP3 ADD MLOAD DUP2 PUSH1 0x2 ADD PUSH0 PUSH2 0x100 EXP DUP2 SLOAD DUP2 PUSH1 0xFF MUL NOT AND SWAP1 DUP4 ISZERO ISZERO MUL OR SWAP1 SSTORE POP PUSH1 0x60 DUP3 ADD MLOAD DUP2 PUSH1 0x3 ADD SSTORE POP POP PUSH2 0x50C PUSH8 0x90DB9DA387AE5E17 PUSH1 0xC0 SHL PUSH2 0xEC0 JUMP JUMPDEST PUSH2 0x520 PUSH8 0x84B9EA4292909E8C PUSH1 0xC0 SHL PUSH2 0xEC0 JUMP JUMPDEST DUP3 PUSH20 0xFFFFFFFFFFFFFFFFFFFFFFFFFFFFFFFFFFFFFFFF AND DUP2 CALLER PUSH20 0xFFFFFFFFFFFFFFFFFFFFFFFFFFFFFFFFFFFFFFFF AND PUSH32 0x20E2AA5B328885C653F9A5186DC31820C228934BB356957318771D665EF0A3C3 DUP6 PUSH1 0x40 MLOAD PUSH2 0x57E SWAP2 SWAP1 PUSH2 0x167E JUMP JUMPDEST PUSH1 0x40 MLOAD DUP1 SWAP2 SUB SWAP1 LOG4 POP POP POP JUMP JUMPDEST PUSH2 0x593 PUSH2 0xEC3 JUMP JUMPDEST PUSH2 0x59C PUSH0 PUSH2 0xF4A JUMP JUMPDEST JUMP JUMPDEST PUSH1 0x5 PUSH1 0x20 MSTORE DUP2 PUSH0 MSTORE PUSH1 0x40 PUSH0 KECCAK256 PUSH1 0x20 MSTORE DUP1 PUSH0 MSTORE PUSH1 0x40 PUSH0 KECCAK256 PUSH0 SWAP2 POP SWAP2 POP SWAP1 SLOAD SWAP1 PUSH2 0x100 EXP SWAP1 DIV PUSH1 0xFF AND DUP2 JUMP JUMPDEST PUSH0 DUP1 PUSH0 SWAP1 SLOAD SWAP1 PUSH2 0x100 EXP SWAP1 DIV PUSH20 0xFFFFFFFFFFFFFFFFFFFFFFFFFFFFFFFFFFFFFFFF AND SWAP1 POP SWAP1 JUMP JUMPDEST PUSH1 0x60 PUSH2 0x605 PUSH8 0xB7DB4508E7170E4 PUSH1 0xC0 SHL PUSH2 0xEC0 JUMP JUMPDEST PUSH2 0x619 PUSH8 0x922A3A2DF1F9CACA PUSH1 0xC0 SHL PUSH2 0xEC0 JUMP JUMPDEST PUSH2 0x62D PUSH8 0x33E15AD1BEBF043F PUSH1 0xC0 SHL PUSH2 0xEC0 JUMP JUMPDEST PUSH1 0x1 DUP1 SLOAD DUP1 PUSH1 0x20 MUL PUSH1 0x20 ADD PUSH1 0x40 MLOAD SWAP1 DUP2 ADD PUSH1 0x40 MSTORE DUP1 SWAP3 SWAP2 SWAP1 DUP2 DUP2 MSTORE PUSH1 0x20 ADD DUP3 DUP1 SLOAD DUP1 ISZERO PUSH2 0x6AC JUMPI PUSH1 0x20 MUL DUP3 ADD SWAP2 SWAP1 PUSH0 MSTORE PUSH1 0x20 PUSH0 KECCAK256 SWAP1 JUMPDEST DUP2 PUSH0 SWAP1 SLOAD SWAP1 PUSH2 0x100 EXP SWAP1 DIV PUSH20 0xFFFFFFFFFFFFFFFFFFFFFFFFFFFFFFFFFFFFFFFF AND PUSH20 0xFFFFFFFFFFFFFFFFFFFFFFFFFFFFFFFFFFFFFFFF AND DUP2 MSTORE PUSH1 0x20 ADD SWAP1 PUSH1 0x1 ADD SWAP1 DUP1 DUP4 GT PUSH2 0x663 JUMPI JUMPDEST POP POP POP POP POP SWAP1 POP SWAP1 JUMP JUMPDEST PUSH2 0x6CA PUSH8 0xD6D30251CF18729B PUSH1 0xC0 SHL PUSH2 0xEC0 JUMP JUMPDEST CALLER PUSH2 0x6DF PUSH8 0xC7F2EB683852F549 PUSH1 0xC0 SHL PUSH2 0xEC0 JUMP JUMPDEST PUSH2 0x6F3 PUSH8 0x2175C6031B5E7EA6 PUSH1 0xC0 SHL PUSH2 0xEC0 JUMP JUMPDEST PUSH2 0x707 PUSH8 0xF87F43F13C2B9B3 PUSH1 0xC0 SHL PUSH2 0xEC0 JUMP JUMPDEST PUSH0 PUSH2 0x71C PUSH8 0x7DB7C4E9BD99FD35 PUSH1 0xC0 SHL PUSH2 0xEC0 JUMP JUMPDEST PUSH2 0x730 PUSH8 0x6221172EA29A0998 PUSH1 0xC0 SHL PUSH2 0xEC0 JUMP JUMPDEST PUSH0 JUMPDEST PUSH1 0x1 DUP1 SLOAD SWAP1 POP DUP2 LT ISZERO PUSH2 0x841 JUMPI PUSH2 0x753 PUSH8 0x71C66F83B3270146 PUSH1 0xC0 SHL PUSH2 0xEC0 JUMP JUMPDEST PUSH2 0x767 PUSH8 0x84300E491BD0D522 PUSH1 0xC0 SHL PUSH2 0xEC0 JUMP JUMPDEST DUP3 PUSH20 0xFFFFFFFFFFFFFFFFFFFFFFFFFFFFFFFFFFFFFFFF AND PUSH1 0x1 DUP3 DUP2 SLOAD DUP2 LT PUSH2 0x792 JUMPI PUSH2 0x791 PUSH2 0x1651 JUMP JUMPDEST JUMPDEST SWAP1 PUSH0 MSTORE PUSH1 0x20 PUSH0 KECCAK256 ADD PUSH0 SWAP1 SLOAD SWAP1 PUSH2 0x100 EXP SWAP1 DIV PUSH20 0xFFFFFFFFFFFFFFFFFFFFFFFFFFFFFFFFFFFFFFFF AND PUSH20 0xFFFFFFFFFFFFFFFFFFFFFFFFFFFFFFFFFFFFFFFF AND SUB PUSH2 0x81A JUMPI PUSH2 0x7E9 PUSH8 0x60E0152D5C49DA47 PUSH1 0xC0 SHL PUSH2 0xEC0 JUMP JUMPDEST PUSH2 0x7FD PUSH8 0x26DAB7D35B83181 PUSH1 0xC0 SHL PUSH2 0xEC0 JUMP JUMPDEST PUSH1 0x1 SWAP2 POP PUSH2 0x815 PUSH8 0xEB3DB01EF4372368 PUSH1 0xC0 SHL PUSH2 0xEC0 JUMP JUMPDEST PUSH2 0x841 JUMP JUMPDEST PUSH2 0x82E PUSH8 0x91999D88F81BB8C4 PUSH1 0xC0 SHL PUSH2 0xEC0 JUMP JUMPDEST DUP1 DUP1 PUSH2 0x839 SWAP1 PUSH2 0x16C4 JUMP JUMPDEST SWAP2 POP POP PUSH2 0x732 JUMP JUMPDEST POP PUSH2 0x856 PUSH8 0x78C2B929396DB639 PUSH1 0xC0 SHL PUSH2 0xEC0 JUMP JUMPDEST PUSH2 0x86A PUSH8 0xCCE38CE92401556B PUSH1 0xC0 SHL PUSH2 0xEC0 JUMP JUMPDEST PUSH2 0x87E PUSH8 0x71916B59436ADE5F PUSH1 0xC0 SHL PUSH2 0xEC0 JUMP JUMPDEST DUP1 PUSH2 0x8BE JUMPI PUSH1 0x40 MLOAD PUSH32 0x8C379A000000000000000000000000000000000000000000000000000000000 DUP2 MSTORE PUSH1 0x4 ADD PUSH2 0x8B5 SWAP1 PUSH2 0x1765 JUMP JUMPDEST PUSH1 0x40 MLOAD DUP1 SWAP2 SUB SWAP1 REVERT JUMPDEST PUSH2 0x8D2 PUSH8 0x8CD20DCD5208F92F PUSH1 0xC0 SHL PUSH2 0xEC0 JUMP JUMPDEST PUSH2 0x8E6 PUSH8 0xCF1149B06BC0A394 PUSH1 0xC0 SHL PUSH2 0xEC0 JUMP JUMPDEST PUSH2 0x8FA PUSH8 0x16798F673F7AA09B PUSH1 0xC0 SHL PUSH2 0xEC0 JUMP JUMPDEST PUSH2 0x90E PUSH8 0x6C5E9E8575248FD5 PUSH1 0xC0 SHL PUSH2 0xEC0 JUMP JUMPDEST DUP3 PUSH2 0x923 PUSH8 0x9C55B24221CFAB49 PUSH1 0xC0 SHL PUSH2 0xEC0 JUMP JUMPDEST PUSH2 0x937 PUSH8 0xAF009159889DC9F1 PUSH1 0xC0 SHL PUSH2 0xEC0 JUMP JUMPDEST PUSH2 0x94B PUSH8 0xB2688C919B8EAB5A PUSH1 0xC0 SHL PUSH2 0xEC0 JUMP JUMPDEST PUSH2 0x95F PUSH8 0xF3F9BE1AED408310 PUSH1 0xC0 SHL PUSH2 0xEC0 JUMP JUMPDEST PUSH1 0x4 DUP1 SLOAD SWAP1 POP DUP2 LT PUSH2 0x9A6 JUMPI PUSH1 0x40 MLOAD PUSH32 0x8C379A000000000000000000000000000000000000000000000000000000000 DUP2 MSTORE PUSH1 0x4 ADD PUSH2 0x99D SWAP1 PUSH2 0x17CD JUMP JUMPDEST PUSH1 0x40 MLOAD DUP1 SWAP2 SUB SWAP1 REVERT JUMPDEST PUSH2 0x9BA PUSH8 0xC22004F1ED60ABA3 PUSH1 0xC0 SHL PUSH2 0xEC0 JUMP JUMPDEST PUSH2 0x9CE PUSH8 0xFD2EF92499268C52 PUSH1 0xC0 SHL PUSH2 0xEC0 JUMP JUMPDEST PUSH2 0x9E2 PUSH8 0xDA52E4DC706D2A89 PUSH1 0xC0 SHL PUSH2 0xEC0 JUMP JUMPDEST PUSH2 0x9F6 PUSH8 0x3A43525B835EA066 PUSH1 0xC0 SHL PUSH2 0xEC0 JUMP JUMPDEST DUP4 PUSH2 0xA0B PUSH8 0x73A43D3958418B5E PUSH1 0xC0 SHL PUSH2 0xEC0 JUMP JUMPDEST PUSH2 0xA1F PUSH8 0xC3CCB73932F32D8E PUSH1 0xC0 SHL PUSH2 0xEC0 JUMP JUMPDEST PUSH2 0xA33 PUSH8 0xBF1A02B803C41AAD PUSH1 0xC0 SHL PUSH2 0xEC0 JUMP JUMPDEST PUSH2 0xA47 PUSH8 0x4F73D8339335850B PUSH1 0xC0 SHL PUSH2 0xEC0 JUMP JUMPDEST PUSH1 0x4 DUP2 DUP2 SLOAD DUP2 LT PUSH2 0xA5B JUMPI PUSH2 0xA5A PUSH2 0x1651 JUMP JUMPDEST JUMPDEST SWAP1 PUSH0 MSTORE PUSH1 0x20 PUSH0 KECCAK256 SWAP1 PUSH1 0x4 MUL ADD PUSH1 0x2 ADD PUSH0 SWAP1 SLOAD SWAP1 PUSH2 0x100 EXP SWAP1 DIV PUSH1 0xFF AND ISZERO PUSH2 0xAB7 JUMPI PUSH1 0x40 MLOAD PUSH32 0x8C379A000000000000000000000000000000000000000000000000000000000 DUP2 MSTORE PUSH1 0x4 ADD PUSH2 0xAAE SWAP1 PUSH2 0x1835 JUMP JUMPDEST PUSH1 0x40 MLOAD DUP1 SWAP2 SUB SWAP1 REVERT JUMPDEST PUSH2 0xACB PUSH8 0x3C0A4D4BDCE9FF53 PUSH1 0xC0 SHL PUSH2 0xEC0 JUMP JUMPDEST PUSH2 0xADF PUSH8 0x53C875F10C35E223 PUSH1 0xC0 SHL PUSH2 0xEC0 JUMP JUMPDEST PUSH2 0xAF3 PUSH8 0x7724D257FA04A11C PUSH1 0xC0 SHL PUSH2 0xEC0 JUMP JUMPDEST PUSH2 0xB07 PUSH8 0x1DA6BF43D3F6A7A2 PUSH1 0xC0 SHL PUSH2 0xEC0 JUMP JUMPDEST DUP5 PUSH2 0xB1C PUSH8 0xFDF86E165A45C496 PUSH1 0xC0 SHL PUSH2 0xEC0 JUMP JUMPDEST PUSH2 0xB30 PUSH8 0xFB98D1BE55B31E7E PUSH1 0xC0 SHL PUSH2 0xEC0 JUMP JUMPDEST PUSH2 0xB44 PUSH8 0x6CB3EC68B99D0735 PUSH1 0xC0 SHL PUSH2 0xEC0 JUMP JUMPDEST PUSH2 0xB58 PUSH8 0xB3E24E247DC26CD5 PUSH1 0xC0 SHL PUSH2 0xEC0 JUMP JUMPDEST PUSH1 0x5 PUSH0 DUP3 DUP2 MSTORE PUSH1 0x20 ADD SWAP1 DUP2 MSTORE PUSH1 0x20 ADD PUSH0 KECCAK256 PUSH0 CALLER PUSH20 0xFFFFFFFFFFFFFFFFFFFFFFFFFFFFFFFFFFFFFFFF AND PUSH20 0xFFFFFFFFFFFFFFFFFFFFFFFFFFFFFFFFFFFFFFFF AND DUP2 MSTORE PUSH1 0x20 ADD SWAP1 DUP2 MSTORE PUSH1 0x20 ADD PUSH0 KECCAK256 PUSH0 SWAP1 SLOAD SWAP1 PUSH2 0x100 EXP SWAP1 DIV PUSH1 0xFF AND ISZERO PUSH2 0xBF1 JUMPI PUSH1 0x40 MLOAD PUSH32 0x8C379A000000000000000000000000000000000000000000000000000000000 DUP2 MSTORE PUSH1 0x4 ADD PUSH2 0xBE8 SWAP1 PUSH2 0x189D JUMP JUMPDEST PUSH1 0x40 MLOAD DUP1 SWAP2 SUB SWAP1 REVERT JUMPDEST PUSH2 0xC05 PUSH8 0xEA127EE498D01E6B PUSH1 0xC0 SHL PUSH2 0xEC0 JUMP JUMPDEST PUSH2 0xC19 PUSH8 0xDCBECD7B01A55BF9 PUSH1 0xC0 SHL PUSH2 0xEC0 JUMP JUMPDEST PUSH2 0xC2D PUSH8 0x88BBA90172C3AE23 PUSH1 0xC0 SHL PUSH2 0xEC0 JUMP JUMPDEST PUSH2 0xC41 PUSH8 0xDA2BDDA3DAC2AF7B PUSH1 0xC0 SHL PUSH2 0xEC0 JUMP JUMPDEST PUSH2 0xC55 PUSH8 0x44E17FB4F6F97772 PUSH1 0xC0 SHL PUSH2 0xEC0 JUMP JUMPDEST PUSH2 0xC69 PUSH8 0xCD85B83FB079201B PUSH1 0xC0 SHL PUSH2 0xEC0 JUMP JUMPDEST PUSH0 PUSH1 0x4 DUP8 DUP2 SLOAD DUP2 LT PUSH2 0xC7E JUMPI PUSH2 0xC7D PUSH2 0x1651 JUMP JUMPDEST JUMPDEST SWAP1 PUSH0 MSTORE PUSH1 0x20 PUSH0 KECCAK256 SWAP1 PUSH1 0x4 MUL ADD SWAP1 POP PUSH2 0xCA0 PUSH8 0xDDE184FA7AFDE6D4 PUSH1 0xC0 SHL PUSH2 0xEC0 JUMP JUMPDEST PUSH1 0x1 DUP2 PUSH1 0x3 ADD PUSH0 DUP3 DUP3 SLOAD PUSH2 0xCB4 SWAP2 SWAP1 PUSH2 0x18BB JUMP JUMPDEST SWAP3 POP POP DUP2 SWAP1 SSTORE POP PUSH2 0xCCF PUSH8 0xBC0E97350792703F PUSH1 0xC0 SHL PUSH2 0xEC0 JUMP JUMPDEST PUSH1 0x1 PUSH1 0x5 PUSH0 DUP10 DUP2 MSTORE PUSH1 0x20 ADD SWAP1 DUP2 MSTORE PUSH1 0x20 ADD PUSH0 KECCAK256 PUSH0 CALLER PUSH20 0xFFFFFFFFFFFFFFFFFFFFFFFFFFFFFFFFFFFFFFFF AND PUSH20 0xFFFFFFFFFFFFFFFFFFFFFFFFFFFFFFFFFFFFFFFF AND DUP2 MSTORE PUSH1 0x20 ADD SWAP1 DUP2 MSTORE PUSH1 0x20 ADD PUSH0 KECCAK256 PUSH0 PUSH2 0x100 EXP DUP2 SLOAD DUP2 PUSH1 0xFF MUL NOT AND SWAP1 DUP4 ISZERO ISZERO MUL OR SWAP1 SSTORE POP PUSH2 0xD47 PUSH8 0x1E0872067F6C0E6 PUSH1 0xC0 SHL PUSH2 0xEC0 JUMP JUMPDEST PUSH2 0xD5B PUSH8 0xE5A852A8758F0C4B PUSH1 0xC0 SHL PUSH2 0xEC0 JUMP JUMPDEST DUP7 CALLER PUSH20 0xFFFFFFFFFFFFFFFFFFFFFFFFFFFFFFFFFFFFFFFF AND PUSH32 0x5CBE105E36805F7820E291F799D5794FF948AF2A5F664E580382DEFB63390041 PUSH1 0x40 MLOAD PUSH1 0x40 MLOAD DUP1 SWAP2 SUB SWAP1 LOG3 PUSH2 0xDB3 PUSH8 0x1ECBB4A2DC1A7651 PUSH1 0xC0 SHL PUSH2 0xEC0 JUMP JUMPDEST PUSH2 0xDC7 PUSH8 0xCF7BD0B652B61C56 PUSH1 0xC0 SHL PUSH2 0xEC0 JUMP JUMPDEST PUSH1 0x3 SLOAD DUP2 PUSH1 0x3 ADD SLOAD LT PUSH2 0xE1E JUMPI PUSH2 0xDE8 PUSH8 0x385C2871D958A93B PUSH1 0xC0 SHL PUSH2 0xEC0 JUMP JUMPDEST PUSH2 0xDFC PUSH8 0x2A3DDBDCCB026AA7 PUSH1 0xC0 SHL PUSH2 0xEC0 JUMP JUMPDEST PUSH2 0xE10 PUSH8 0x951E0CEB67E49CDA PUSH1 0xC0 SHL PUSH2 0xEC0 JUMP JUMPDEST PUSH2 0xE19 DUP8 PUSH2 0x100B JUMP JUMPDEST PUSH2 0xE33 JUMP JUMPDEST PUSH2 0xE32 PUSH8 0x51DB7958679A2BBB PUSH1 0xC0 SHL PUSH2 0xEC0 JUMP JUMPDEST JUMPDEST POP POP POP POP POP POP POP JUMP JUMPDEST PUSH2 0xE44 PUSH2 0xEC3 JUMP JUMPDEST PUSH0 PUSH20 0xFFFFFFFFFFFFFFFFFFFFFFFFFFFFFFFFFFFFFFFF AND DUP2 PUSH20 0xFFFFFFFFFFFFFFFFFFFFFFFFFFFFFFFFFFFFFFFF AND SUB PUSH2 0xEB4 JUMPI PUSH0 PUSH1 0x40 MLOAD PUSH32 0x1E4FBDF700000000000000000000000000000000000000000000000000000000 DUP2 MSTORE PUSH1 0x4 ADD PUSH2 0xEAB SWAP2 SWAP1 PUSH2 0x1545 JUMP JUMPDEST PUSH1 0x40 MLOAD DUP1 SWAP2 SUB SWAP1 REVERT JUMPDEST PUSH2 0xEBD DUP2 PUSH2 0xF4A JUMP JUMPDEST POP JUMP JUMPDEST POP JUMP JUMPDEST PUSH2 0xECB PUSH2 0x121C JUMP JUMPDEST PUSH20 0xFFFFFFFFFFFFFFFFFFFFFFFFFFFFFFFFFFFFFFFF AND PUSH2 0xEE9 PUSH2 0x5C8 JUMP JUMPDEST PUSH20 0xFFFFFFFFFFFFFFFFFFFFFFFFFFFFFFFFFFFFFFFF AND EQ PUSH2 0xF48 JUMPI PUSH2 0xF0C PUSH2 0x121C JUMP JUMPDEST PUSH1 0x40 MLOAD PUSH32 0x118CDAA700000000000000000000000000000000000000000000000000000000 DUP2 MSTORE PUSH1 0x4 ADD PUSH2 0xF3F SWAP2 SWAP1 PUSH2 0x1545 JUMP JUMPDEST PUSH1 0x40 MLOAD DUP1 SWAP2 SUB SWAP1 REVERT JUMPDEST JUMP JUMPDEST PUSH0 DUP1 PUSH0 SWAP1 SLOAD SWAP1 PUSH2 0x100 EXP SWAP1 DIV PUSH20 0xFFFFFFFFFFFFFFFFFFFFFFFFFFFFFFFFFFFFFFFF AND SWAP1 POP DUP2 PUSH0 DUP1 PUSH2 0x100 EXP DUP2 SLOAD DUP2 PUSH20 0xFFFFFFFFFFFFFFFFFFFFFFFFFFFFFFFFFFFFFFFF MUL NOT AND SWAP1 DUP4 PUSH20 0xFFFFFFFFFFFFFFFFFFFFFFFFFFFFFFFFFFFFFFFF AND MUL OR SWAP1 SSTORE POP DUP2 PUSH20 0xFFFFFFFFFFFFFFFFFFFFFFFFFFFFFFFFFFFFFFFF AND DUP2 PUSH20 0xFFFFFFFFFFFFFFFFFFFFFFFFFFFFFFFFFFFFFFFF AND PUSH32 0x8BE0079C531659141344CD1FD0A4F28419497F9722A3DAAFE3B4186F6B6457E0 PUSH1 0x40 MLOAD PUSH1 0x40 MLOAD DUP1 SWAP2 SUB SWAP1 LOG3 POP POP JUMP JUMPDEST PUSH2 0x101F PUSH8 0x374B3D4F7E8CE1C0 PUSH1 0xC0 SHL PUSH2 0xEC0 JUMP JUMPDEST DUP1 PUSH2 0x1034 PUSH8 0x73A43D3958418B5E PUSH1 0xC0 SHL PUSH2 0xEC0 JUMP JUMPDEST PUSH2 0x1048 PUSH8 0xC3CCB73932F32D8E PUSH1 0xC0 SHL PUSH2 0xEC0 JUMP JUMPDEST PUSH2 0x105C PUSH8 0xBF1A02B803C41AAD PUSH1 0xC0 SHL PUSH2 0xEC0 JUMP JUMPDEST PUSH2 0x1070 PUSH8 0x4F73D8339335850B PUSH1 0xC0 SHL PUSH2 0xEC0 JUMP JUMPDEST PUSH1 0x4 DUP2 DUP2 SLOAD DUP2 LT PUSH2 0x1084 JUMPI PUSH2 0x1083 PUSH2 0x1651 JUMP JUMPDEST JUMPDEST SWAP1 PUSH0 MSTORE PUSH1 0x20 PUSH0 KECCAK256 SWAP1 PUSH1 0x4 MUL ADD PUSH1 0x2 ADD PUSH0 SWAP1 SLOAD SWAP1 PUSH2 0x100 EXP SWAP1 DIV PUSH1 0xFF AND ISZERO PUSH2 0x10E0 JUMPI PUSH1 0x40 MLOAD PUSH32 0x8C379A000000000000000000000000000000000000000000000000000000000 DUP2 MSTORE PUSH1 0x4 ADD PUSH2 0x10D7 SWAP1 PUSH2 0x1835 JUMP JUMPDEST PUSH1 0x40 MLOAD DUP1 SWAP2 SUB SWAP1 REVERT JUMPDEST PUSH2 0x10F4 PUSH8 0x3C0A4D4BDCE9FF53 PUSH1 0xC0 SHL PUSH2 0xEC0 JUMP JUMPDEST PUSH2 0x1108 PUSH8 0x53C875F10C35E223 PUSH1 0xC0 SHL PUSH2 0xEC0 JUMP JUMPDEST PUSH2 0x111C PUSH8 0x5AF869000D6C1EA1 PUSH1 0xC0 SHL PUSH2 0xEC0 JUMP JUMPDEST PUSH2 0x1130 PUSH8 0x9732C84FA50B058D PUSH1 0xC0 SHL PUSH2 0xEC0 JUMP JUMPDEST PUSH2 0x1144 PUSH8 0x8133A07901EF1B9 PUSH1 0xC0 SHL PUSH2 0xEC0 JUMP JUMPDEST PUSH2 0x1158 PUSH8 0x65D4D2B4BC494CC3 PUSH1 0xC0 SHL PUSH2 0xEC0 JUMP JUMPDEST PUSH0 PUSH1 0x4 DUP4 DUP2 SLOAD DUP2 LT PUSH2 0x116D JUMPI PUSH2 0x116C PUSH2 0x1651 JUMP JUMPDEST JUMPDEST SWAP1 PUSH0 MSTORE PUSH1 0x20 PUSH0 KECCAK256 SWAP1 PUSH1 0x4 MUL ADD SWAP1 POP PUSH2 0x118F PUSH8 0xCAD9E72AFECCB8DD PUSH1 0xC0 SHL PUSH2 0xEC0 JUMP JUMPDEST PUSH1 0x1 DUP2 PUSH1 0x2 ADD PUSH0 PUSH2 0x100 EXP DUP2 SLOAD DUP2 PUSH1 0xFF MUL NOT AND SWAP1 DUP4 ISZERO ISZERO MUL OR SWAP1 SSTORE POP PUSH2 0x11BF PUSH8 0xFF0C6D8BA1223504 PUSH1 0xC0 SHL PUSH2 0xEC0 JUMP JUMPDEST PUSH2 0x11D3 PUSH8 0x1C45BDAE69C36139 PUSH1 0xC0 SHL PUSH2 0xEC0 JUMP JUMPDEST DUP3 CALLER PUSH20 0xFFFFFFFFFFFFFFFFFFFFFFFFFFFFFFFFFFFFFFFF AND PUSH32 0x5445F318F4F5FCFB66592E68E0CC5822AA15664039BD5F0FFDE24C5A8142B1AC PUSH1 0x40 MLOAD PUSH1 0x40 MLOAD DUP1 SWAP2 SUB SWAP1 LOG3 POP POP POP JUMP JUMPDEST PUSH0 CALLER SWAP1 POP SWAP1 JUMP JUMPDEST PUSH0 DUP2 SWAP1 POP SWAP2 SWAP1 POP JUMP JUMPDEST PUSH2 0x1235 DUP2 PUSH2 0x1223 JUMP JUMPDEST DUP3 MSTORE POP POP JUMP JUMPDEST PUSH0 DUP2 MLOAD SWAP1 POP SWAP2 SWAP1 POP JUMP JUMPDEST PUSH0 DUP3 DUP3 MSTORE PUSH1 0x20 DUP3 ADD SWAP1 POP SWAP3 SWAP2 POP POP JUMP JUMPDEST PUSH0 DUP2 SWAP1 POP PUSH1 0x20 DUP3 ADD SWAP1 POP SWAP2 SWAP1 POP JUMP JUMPDEST PUSH0 PUSH20 0xFFFFFFFFFFFFFFFFFFFFFFFFFFFFFFFFFFFFFFFF DUP3 AND SWAP1 POP SWAP2 SWAP1 POP JUMP JUMPDEST PUSH0 PUSH2 0x128D DUP3 PUSH2 0x1264 JUMP JUMPDEST SWAP1 POP SWAP2 SWAP1 POP JUMP JUMPDEST PUSH2 0x129D DUP2 PUSH2 0x1283 JUMP JUMPDEST DUP3 MSTORE POP POP JUMP JUMPDEST PUSH2 0x12AC DUP2 PUSH2 0x1223 JUMP JUMPDEST DUP3 MSTORE POP POP JUMP JUMPDEST PUSH0 DUP2 ISZERO ISZERO SWAP1 POP SWAP2 SWAP1 POP JUMP JUMPDEST PUSH2 0x12C6 DUP2 PUSH2 0x12B2 JUMP JUMPDEST DUP3 MSTORE POP POP JUMP JUMPDEST PUSH1 0x80 DUP3 ADD PUSH0 DUP3 ADD MLOAD PUSH2 0x12E0 PUSH0 DUP6 ADD DUP3 PUSH2 0x1294 JUMP JUMPDEST POP PUSH1 0x20 DUP3 ADD MLOAD PUSH2 0x12F3 PUSH1 0x20 DUP6 ADD DUP3 PUSH2 0x12A3 JUMP JUMPDEST POP PUSH1 0x40 DUP3 ADD MLOAD PUSH2 0x1306 PUSH1 0x40 DUP6 ADD DUP3 PUSH2 0x12BD JUMP JUMPDEST POP PUSH1 0x60 DUP3 ADD MLOAD PUSH2 0x1319 PUSH1 0x60 DUP6 ADD DUP3 PUSH2 0x12A3 JUMP JUMPDEST POP POP POP POP JUMP JUMPDEST PUSH0 PUSH2 0x132A DUP4 DUP4 PUSH2 0x12CC JUMP JUMPDEST PUSH1 0x80 DUP4 ADD SWAP1 POP SWAP3 SWAP2 POP POP JUMP JUMPDEST PUSH0 PUSH1 0x20 DUP3 ADD SWAP1 POP SWAP2 SWAP1 POP JUMP JUMPDEST PUSH0 PUSH2 0x134C DUP3 PUSH2 0x123B JUMP JUMPDEST PUSH2 0x1356 DUP2 DUP6 PUSH2 0x1245 JUMP JUMPDEST SWAP4 POP PUSH2 0x1361 DUP4 PUSH2 0x1255 JUMP JUMPDEST DUP1 PUSH0 JUMPDEST DUP4 DUP2 LT ISZERO PUSH2 0x1391 JUMPI DUP2 MLOAD PUSH2 0x1378 DUP9 DUP3 PUSH2 0x131F JUMP JUMPDEST SWAP8 POP PUSH2 0x1383 DUP4 PUSH2 0x1336 JUMP JUMPDEST SWAP3 POP POP PUSH1 0x1 DUP2 ADD SWAP1 POP PUSH2 0x1364 JUMP JUMPDEST POP DUP6 SWAP4 POP POP POP POP SWAP3 SWAP2 POP POP JUMP JUMPDEST PUSH0 PUSH1 0x40 DUP3 ADD SWAP1 POP PUSH2 0x13B1 PUSH0 DUP4 ADD DUP6 PUSH2 0x122C JUMP JUMPDEST DUP2 DUP2 SUB PUSH1 0x20 DUP4 ADD MSTORE PUSH2 0x13C3 DUP2 DUP5 PUSH2 0x1342 JUMP JUMPDEST SWAP1 POP SWAP4 SWAP3 POP POP POP JUMP JUMPDEST PUSH0 DUP1 REVERT JUMPDEST PUSH2 0x13D9 DUP2 PUSH2 0x1223 JUMP JUMPDEST DUP2 EQ PUSH2 0x13E3 JUMPI PUSH0 DUP1 REVERT JUMPDEST POP JUMP JUMPDEST PUSH0 DUP2 CALLDATALOAD SWAP1 POP PUSH2 0x13F4 DUP2 PUSH2 0x13D0 JUMP JUMPDEST SWAP3 SWAP2 POP POP JUMP JUMPDEST PUSH0 PUSH1 0x20 DUP3 DUP5 SUB SLT ISZERO PUSH2 0x140F JUMPI PUSH2 0x140E PUSH2 0x13CC JUMP JUMPDEST JUMPDEST PUSH0 PUSH2 0x141C DUP5 DUP3 DUP6 ADD PUSH2 0x13E6 JUMP JUMPDEST SWAP2 POP POP SWAP3 SWAP2 POP POP JUMP JUMPDEST PUSH2 0x142E DUP2 PUSH2 0x1283 JUMP JUMPDEST DUP3 MSTORE POP POP JUMP JUMPDEST PUSH2 0x143D DUP2 PUSH2 0x12B2 JUMP JUMPDEST DUP3 MSTORE POP POP JUMP JUMPDEST PUSH0 PUSH1 0x80 DUP3 ADD SWAP1 POP PUSH2 0x1456 PUSH0 DUP4 ADD DUP8 PUSH2 0x1425 JUMP JUMPDEST PUSH2 0x1463 PUSH1 0x20 DUP4 ADD DUP7 PUSH2 0x122C JUMP JUMPDEST PUSH2 0x1470 PUSH1 0x40 DUP4 ADD DUP6 PUSH2 0x1434 JUMP JUMPDEST PUSH2 0x147D PUSH1 0x60 DUP4 ADD DUP5 PUSH2 0x122C JUMP JUMPDEST SWAP6 SWAP5 POP POP POP POP POP JUMP JUMPDEST PUSH2 0x148F DUP2 PUSH2 0x1283 JUMP JUMPDEST DUP2 EQ PUSH2 0x1499 JUMPI PUSH0 DUP1 REVERT JUMPDEST POP JUMP JUMPDEST PUSH0 DUP2 CALLDATALOAD SWAP1 POP PUSH2 0x14AA DUP2 PUSH2 0x1486 JUMP JUMPDEST SWAP3 SWAP2 POP POP JUMP JUMPDEST PUSH0 DUP1 PUSH1 0x40 DUP4 DUP6 SUB SLT ISZERO PUSH2 0x14C6 JUMPI PUSH2 0x14C5 PUSH2 0x13CC JUMP JUMPDEST JUMPDEST PUSH0 PUSH2 0x14D3 DUP6 DUP3 DUP7 ADD PUSH2 0x149C JUMP JUMPDEST SWAP3 POP POP PUSH1 0x20 PUSH2 0x14E4 DUP6 DUP3 DUP7 ADD PUSH2 0x13E6 JUMP JUMPDEST SWAP2 POP POP SWAP3 POP SWAP3 SWAP1 POP JUMP JUMPDEST PUSH0 DUP1 PUSH1 0x40 DUP4 DUP6 SUB SLT ISZERO PUSH2 0x1504 JUMPI PUSH2 0x1503 PUSH2 0x13CC JUMP JUMPDEST JUMPDEST PUSH0 PUSH2 0x1511 DUP6 DUP3 DUP7 ADD PUSH2 0x13E6 JUMP JUMPDEST SWAP3 POP POP PUSH1 0x20 PUSH2 0x1522 DUP6 DUP3 DUP7 ADD PUSH2 0x149C JUMP JUMPDEST SWAP2 POP POP SWAP3 POP SWAP3 SWAP1 POP JUMP JUMPDEST PUSH0 PUSH1 0x20 DUP3 ADD SWAP1 POP PUSH2 0x153F PUSH0 DUP4 ADD DUP5 PUSH2 0x1434 JUMP JUMPDEST SWAP3 SWAP2 POP POP JUMP JUMPDEST PUSH0 PUSH1 0x20 DUP3 ADD SWAP1 POP PUSH2 0x1558 PUSH0 DUP4 ADD DUP5 PUSH2 0x1425 JUMP JUMPDEST SWAP3 SWAP2 POP POP JUMP JUMPDEST PUSH0 DUP2 MLOAD SWAP1 POP SWAP2 SWAP1 POP JUMP JUMPDEST PUSH0 DUP3 DUP3 MSTORE PUSH1 0x20 DUP3 ADD SWAP1 POP SWAP3 SWAP2 POP POP JUMP JUMPDEST PUSH0 DUP2 SWAP1 POP PUSH1 0x20 DUP3 ADD SWAP1 POP SWAP2 SWAP1 POP JUMP JUMPDEST PUSH0 PUSH2 0x1592 DUP4 DUP4 PUSH2 0x1294 JUMP JUMPDEST PUSH1 0x20 DUP4 ADD SWAP1 POP SWAP3 SWAP2 POP POP JUMP JUMPDEST PUSH0 PUSH1 0x20 DUP3 ADD SWAP1 POP SWAP2 SWAP1 POP JUMP JUMPDEST PUSH0 PUSH2 0x15B4 DUP3 PUSH2 0x155E JUMP JUMPDEST PUSH2 0x15BE DUP2 DUP6 PUSH2 0x1568 JUMP JUMPDEST SWAP4 POP PUSH2 0x15C9 DUP4 PUSH2 0x1578 JUMP JUMPDEST DUP1 PUSH0 JUMPDEST DUP4 DUP2 LT ISZERO PUSH2 0x15F9 JUMPI DUP2 MLOAD PUSH2 0x15E0 DUP9 DUP3 PUSH2 0x1587 JUMP JUMPDEST SWAP8 POP PUSH2 0x15EB DUP4 PUSH2 0x159E JUMP JUMPDEST SWAP3 POP POP PUSH1 0x1 DUP2 ADD SWAP1 POP PUSH2 0x15CC JUMP JUMPDEST POP DUP6 SWAP4 POP POP POP POP SWAP3 SWAP2 POP POP JUMP JUMPDEST PUSH0 PUSH1 0x20 DUP3 ADD SWAP1 POP DUP2 DUP2 SUB PUSH0 DUP4 ADD MSTORE PUSH2 0x161E DUP2 DUP5 PUSH2 0x15AA JUMP JUMPDEST SWAP1 POP SWAP3 SWAP2 POP POP JUMP JUMPDEST PUSH0 PUSH1 0x20 DUP3 DUP5 SUB SLT ISZERO PUSH2 0x163B JUMPI PUSH2 0x163A PUSH2 0x13CC JUMP JUMPDEST JUMPDEST PUSH0 PUSH2 0x1648 DUP5 DUP3 DUP6 ADD PUSH2 0x149C JUMP JUMPDEST SWAP2 POP POP SWAP3 SWAP2 POP POP JUMP JUMPDEST PUSH32 0x4E487B7100000000000000000000000000000000000000000000000000000000 PUSH0 MSTORE PUSH1 0x32 PUSH1 0x4 MSTORE PUSH1 0x24 PUSH0 REVERT JUMPDEST PUSH0 PUSH1 0x20 DUP3 ADD SWAP1 POP PUSH2 0x1691 PUSH0 DUP4 ADD DUP5 PUSH2 0x122C JUMP JUMPDEST SWAP3 SWAP2 POP POP JUMP JUMPDEST PUSH32 0x4E487B7100000000000000000000000000000000000000000000000000000000 PUSH0 MSTORE PUSH1 0x11 PUSH1 0x4 MSTORE PUSH1 0x24 PUSH0 REVERT JUMPDEST PUSH0 PUSH2 0x16CE DUP3 PUSH2 0x1223 JUMP JUMPDEST SWAP2 POP PUSH32 0xFFFFFFFFFFFFFFFFFFFFFFFFFFFFFFFFFFFFFFFFFFFFFFFFFFFFFFFFFFFFFFFF DUP3 SUB PUSH2 0x1700 JUMPI PUSH2 0x16FF PUSH2 0x1697 JUMP JUMPDEST JUMPDEST PUSH1 0x1 DUP3 ADD SWAP1 POP SWAP2 SWAP1 POP JUMP JUMPDEST PUSH0 DUP3 DUP3 MSTORE PUSH1 0x20 DUP3 ADD SWAP1 POP SWAP3 SWAP2 POP POP JUMP JUMPDEST PUSH32 0x556E617574686F72697A6564206F7065726174696F6E2E000000000000000000 PUSH0 DUP3 ADD MSTORE POP JUMP JUMPDEST PUSH0 PUSH2 0x174F PUSH1 0x17 DUP4 PUSH2 0x170B JUMP JUMPDEST SWAP2 POP PUSH2 0x175A DUP3 PUSH2 0x171B JUMP JUMPDEST PUSH1 0x20 DUP3 ADD SWAP1 POP SWAP2 SWAP1 POP JUMP JUMPDEST PUSH0 PUSH1 0x20 DUP3 ADD SWAP1 POP DUP2 DUP2 SUB PUSH0 DUP4 ADD MSTORE PUSH2 0x177C DUP2 PUSH2 0x1743 JUMP JUMPDEST SWAP1 POP SWAP2 SWAP1 POP JUMP JUMPDEST PUSH32 0x5472616E73616374696F6E20646F6573206E6F74206578697374000000000000 PUSH0 DUP3 ADD MSTORE POP JUMP JUMPDEST PUSH0 PUSH2 0x17B7 PUSH1 0x1A DUP4 PUSH2 0x170B JUMP JUMPDEST SWAP2 POP PUSH2 0x17C2 DUP3 PUSH2 0x1783 JUMP JUMPDEST PUSH1 0x20 DUP3 ADD SWAP1 POP SWAP2 SWAP1 POP JUMP JUMPDEST PUSH0 PUSH1 0x20 DUP3 ADD SWAP1 POP DUP2 DUP2 SUB PUSH0 DUP4 ADD MSTORE PUSH2 0x17E4 DUP2 PUSH2 0x17AB JUMP JUMPDEST SWAP1 POP SWAP2 SWAP1 POP JUMP JUMPDEST PUSH32 0x5472616E73616374696F6E20616C726561647920657865637574656400000000 PUSH0 DUP3 ADD MSTORE POP JUMP JUMPDEST PUSH0 PUSH2 0x181F PUSH1 0x1C DUP4 PUSH2 0x170B JUMP JUMPDEST SWAP2 POP PUSH2 0x182A DUP3 PUSH2 0x17EB JUMP JUMPDEST PUSH1 0x20 DUP3 ADD SWAP1 POP SWAP2 SWAP1 POP JUMP JUMPDEST PUSH0 PUSH1 0x20 DUP3 ADD SWAP1 POP DUP2 DUP2 SUB PUSH0 DUP4 ADD MSTORE PUSH2 0x184C DUP2 PUSH2 0x1813 JUMP JUMPDEST SWAP1 POP SWAP2 SWAP1 POP JUMP JUMPDEST PUSH32 0x5472616E73616374696F6E20616C726561647920636F6E6669726D6564000000 PUSH0 DUP3 ADD MSTORE POP JUMP JUMPDEST PUSH0 PUSH2 0x1887 PUSH1 0x1D DUP4 PUSH2 0x170B JUMP JUMPDEST SWAP2 POP PUSH2 0x1892 DUP3 PUSH2 0x1853 JUMP JUMPDEST PUSH1 0x20 DUP3 ADD SWAP1 POP SWAP2 SWAP1 POP JUMP JUMPDEST PUSH0 PUSH1 0x20 DUP3 ADD SWAP1 POP DUP2 DUP2 SUB PUSH0 DUP4 ADD MSTORE PUSH2 0x18B4 DUP2 PUSH2 0x187B JUMP JUMPDEST SWAP1 POP SWAP2 SWAP1 POP JUMP JUMPDEST PUSH0 PUSH2 0x18C5 DUP3 PUSH2 0x1223 JUMP JUMPDEST SWAP2 POP PUSH2 0x18D0 DUP4 PUSH2 0x1223 JUMP JUMPDEST SWAP3 POP DUP3 DUP3 ADD SWAP1 POP DUP1 DUP3 GT ISZERO PUSH2 0x18E8 JUMPI PUSH2 0x18E7 PUSH2 0x1697 JUMP JUMPDEST JUMPDEST SWAP3 SWAP2 POP POP JUMP INVALID LOG2 PUSH5 0x6970667358 0x22 SLT KECCAK256 0xFB 0x1F PUSH28 0x1DBD35A6CC0766FAE309D55EEF759F6BFCA642BC42B6BF29989DAFEA DUP3 PUSH5 0x736F6C6343 STOP ADDMOD EQ STOP CALLER "},"methodIdentifiers":{"confirmTransaction(uint256)":"c01a8c84","generateTransaction(address,uint256)":"402d4fb4","getAllTransactions()":"27506f53","getOwners()":"a0e67e2b","getTransaction(uint256)":"33ea3dc8","isConfirmed(uint256,address)":"80f59a65","owner()":"8da5cb5b","renounceOwnership()":"715018a6","transferOwnership(address)":"f2fde38b"}}}}}