{
  "_format": "hh-sol-artifact-1",
  "contractName": "Wallet",
  "sourceName": "contracts/Wallet.sol",
  "abi": [
    {
      "inputs": [
        {
          "internalType": "address[]",
          "name": "_owners",
          "type": "address[]"
        }
      ],
      "stateMutability": "nonpayable",
      "type": "constructor"
    },
    {
      "inputs": [
        {
          "internalType": "address",
          "name": "owner",
          "type": "address"
        }
      ],
      "name": "OwnableInvalidOwner",
      "type": "error"
    },
    {
      "inputs": [
        {
          "internalType": "address",
          "name": "account",
          "type": "address"
        }
      ],
      "name": "OwnableUnauthorizedAccount",
      "type": "error"
    },
    {
      "anonymous": false,
      "inputs": [
        {
          "indexed": true,
          "internalType": "address",
          "name": "owner",
          "type": "address"
        },
        {
          "indexed": true,
          "internalType": "uint256",
          "name": "txIndex",
          "type": "uint256"
        }
      ],
      "name": "ConfirmTransaction",
      "type": "event"
    },
    {
      "anonymous": false,
      "inputs": [
        {
          "indexed": true,
          "internalType": "address",
          "name": "owner",
          "type": "address"
        },
        {
          "indexed": true,
          "internalType": "uint256",
          "name": "txIndex",
          "type": "uint256"
        }
      ],
      "name": "ExecuteTransaction",
      "type": "event"
    },
    {
      "anonymous": false,
      "inputs": [
        {
          "indexed": true,
          "internalType": "address",
          "name": "owner",
          "type": "address"
        },
        {
          "indexed": true,
          "internalType": "uint256",
          "name": "txIndex",
          "type": "uint256"
        },
        {
          "indexed": true,
          "internalType": "address",
          "name": "to",
          "type": "address"
        },
        {
          "indexed": false,
          "internalType": "uint256",
          "name": "value",
          "type": "uint256"
        }
      ],
      "name": "GenerateTransaction",
      "type": "event"
    },
    {
      "anonymous": false,
      "inputs": [
        {
          "indexed": true,
          "internalType": "address",
          "name": "previousOwner",
          "type": "address"
        },
        {
          "indexed": true,
          "internalType": "address",
          "name": "newOwner",
          "type": "address"
        }
      ],
      "name": "OwnershipTransferred",
      "type": "event"
    },
    {
      "inputs": [
        {
          "internalType": "uint256",
          "name": "_txIndex",
          "type": "uint256"
        }
      ],
      "name": "confirmTransaction",
      "outputs": [],
      "stateMutability": "nonpayable",
      "type": "function"
    },
    {
      "inputs": [
        {
          "internalType": "address",
          "name": "_to",
          "type": "address"
        },
        {
          "internalType": "uint256",
          "name": "_value",
          "type": "uint256"
        }
      ],
      "name": "generateTransaction",
      "outputs": [],
      "stateMutability": "nonpayable",
      "type": "function"
    },
    {
      "inputs": [],
      "name": "getAllTransactions",
      "outputs": [
        {
          "internalType": "uint256",
          "name": "length",
          "type": "uint256"
        },
        {
          "components": [
            {
              "internalType": "address",
              "name": "to",
              "type": "address"
            },
            {
              "internalType": "uint256",
              "name": "value",
              "type": "uint256"
            },
            {
              "internalType": "bool",
              "name": "executed",
              "type": "bool"
            },
            {
              "internalType": "uint256",
              "name": "numConfirmations",
              "type": "uint256"
            }
          ],
          "internalType": "struct Wallet.Transaction[]",
          "name": "",
          "type": "tuple[]"
        }
      ],
      "stateMutability": "view",
      "type": "function"
    },
    {
      "inputs": [],
      "name": "getOwners",
      "outputs": [
        {
          "internalType": "address[]",
          "name": "",
          "type": "address[]"
        }
      ],
      "stateMutability": "view",
      "type": "function"
    },
    {
      "inputs": [
        {
          "internalType": "uint256",
          "name": "_txIndex",
          "type": "uint256"
        }
      ],
      "name": "getTransaction",
      "outputs": [
        {
          "internalType": "address",
          "name": "to",
          "type": "address"
        },
        {
          "internalType": "uint256",
          "name": "value",
          "type": "uint256"
        },
        {
          "internalType": "bool",
          "name": "executed",
          "type": "bool"
        },
        {
          "internalType": "uint256",
          "name": "numConfirmations",
          "type": "uint256"
        }
      ],
      "stateMutability": "view",
      "type": "function"
    },
    {
      "inputs": [
        {
          "internalType": "uint256",
          "name": "",
          "type": "uint256"
        },
        {
          "internalType": "address",
          "name": "",
          "type": "address"
        }
      ],
      "name": "isConfirmed",
      "outputs": [
        {
          "internalType": "bool",
          "name": "",
          "type": "bool"
        }
      ],
      "stateMutability": "view",
      "type": "function"
    },
    {
      "inputs": [],
      "name": "owner",
      "outputs": [
        {
          "internalType": "address",
          "name": "",
          "type": "address"
        }
      ],
      "stateMutability": "view",
      "type": "function"
    },
    {
      "inputs": [],
      "name": "renounceOwnership",
      "outputs": [],
      "stateMutability": "nonpayable",
      "type": "function"
    },
    {
      "inputs": [
        {
          "internalType": "address",
          "name": "newOwner",
          "type": "address"
        }
      ],
      "name": "transferOwnership",
      "outputs": [],
      "stateMutability": "nonpayable",
      "type": "function"
    }
  ],
  "bytecode": "0x608060405234801562000010575f80fd5b50604051620023ad380380620023ad8339818101604052810190620000369190620007f7565b335f73ffffffffffffffffffffffffffffffffffffffff168173ffffffffffffffffffffffffffffffffffffffff1603620000aa575f6040517f1e4fbdf7000000000000000000000000000000000000000000000000000000008152600401620000a1919062000857565b60405180910390fd5b620000bb816200055560201b60201c565b50620000d867723a79958b9764b560c01b6200061660201b60201c565b620000f4674a962185cdb4222260c01b6200061660201b60201c565b6200011067910a191ddf116e3a60c01b6200061660201b60201c565b6200012c67768e564ba884209a60c01b6200061660201b60201c565b5f81511162000172576040517f08c379a00000000000000000000000000000000000000000000000000000000081526004016200016990620008d0565b60405180910390fd5b6200018e672ab27a46024831e460c01b6200061660201b60201c565b620001aa673bf69aeb3a250a3c60c01b6200061660201b60201c565b620001c6673dc454a694fc7e9d60c01b6200061660201b60201c565b5f5b81518110156200052957620001ee67478ecf3ee83e350f60c01b6200061660201b60201c565b6200020a674e918e4517cbb14560c01b6200061660201b60201c565b5f828281518110620002215762000220620008f0565b5b602002602001015190506200024767c57b4144a341239f60c01b6200061660201b60201c565b6200026367a1a2c6317d20652f60c01b6200061660201b60201c565b6200027f67c68ac802d63bf93f60c01b6200061660201b60201c565b5f73ffffffffffffffffffffffffffffffffffffffff168173ffffffffffffffffffffffffffffffffffffffff1603620002f0576040517f08c379a0000000000000000000000000000000000000000000000000000000008152600401620002e7906200096b565b60405180910390fd5b6200030c670f3c09106b40465760c01b6200061660201b60201c565b6200032867372860b6071dd4a760c01b6200061660201b60201c565b6200034467135ae3c9a77c770560c01b6200061660201b60201c565b6200036067ad3db739a802f5fd60c01b6200061660201b60201c565b60025f8273ffffffffffffffffffffffffffffffffffffffff1673ffffffffffffffffffffffffffffffffffffffff1681526020019081526020015f205f9054906101000a900460ff1615620003ed576040517f08c379a0000000000000000000000000000000000000000000000000000000008152600401620003e490620009d9565b60405180910390fd5b62000409672a313453d190619d60c01b6200061660201b60201c565b62000425679b6bce995081d09b60c01b6200061660201b60201c565b600160025f8373ffffffffffffffffffffffffffffffffffffffff1673ffffffffffffffffffffffffffffffffffffffff1681526020019081526020015f205f6101000a81548160ff02191690831515021790555062000496671f12f658f6200b4560c01b6200061660201b60201c565b620004b26724602ea0074a150f60c01b6200061660201b60201c565b600181908060018154018082558091505060019003905f5260205f20015f9091909190916101000a81548173ffffffffffffffffffffffffffffffffffffffff021916908373ffffffffffffffffffffffffffffffffffffffff160217905550508080620005209062000a2f565b915050620001c8565b5062000546678fc61b7d24ee03c960c01b6200061660201b60201c565b80516003819055505062000a7b565b5f805f9054906101000a900473ffffffffffffffffffffffffffffffffffffffff169050815f806101000a81548173ffffffffffffffffffffffffffffffffffffffff021916908373ffffffffffffffffffffffffffffffffffffffff1602179055508173ffffffffffffffffffffffffffffffffffffffff168173ffffffffffffffffffffffffffffffffffffffff167f8be0079c531659141344cd1fd0a4f28419497f9722a3daafe3b4186f6b6457e060405160405180910390a35050565b50565b5f604051905090565b5f80fd5b5f80fd5b5f80fd5b5f601f19601f8301169050919050565b7f4e487b71000000000000000000000000000000000000000000000000000000005f52604160045260245ffd5b62000676826200062e565b810181811067ffffffffffffffff821117156200069857620006976200063e565b5b80604052505050565b5f620006ac62000619565b9050620006ba82826200066b565b919050565b5f67ffffffffffffffff821115620006dc57620006db6200063e565b5b602082029050602081019050919050565b5f80fd5b5f73ffffffffffffffffffffffffffffffffffffffff82169050919050565b5f6200071c82620006f1565b9050919050565b6200072e8162000710565b811462000739575f80fd5b50565b5f815190506200074c8162000723565b92915050565b5f620007686200076284620006bf565b620006a1565b905080838252602082019050602084028301858111156200078e576200078d620006ed565b5b835b81811015620007bb5780620007a688826200073c565b84526020840193505060208101905062000790565b5050509392505050565b5f82601f830112620007dc57620007db6200062a565b5b8151620007ee84826020860162000752565b91505092915050565b5f602082840312156200080f576200080e62000622565b5b5f82015167ffffffffffffffff8111156200082f576200082e62000626565b5b6200083d84828501620007c5565b91505092915050565b620008518162000710565b82525050565b5f6020820190506200086c5f83018462000846565b92915050565b5f82825260208201905092915050565b7f4174206c65617374206f6e65206f776e657220726571756972656400000000005f82015250565b5f620008b8601b8362000872565b9150620008c58262000882565b602082019050919050565b5f6020820190508181035f830152620008e981620008aa565b9050919050565b7f4e487b71000000000000000000000000000000000000000000000000000000005f52603260045260245ffd5b7f496e76616c6964206f776e6572206164647265737300000000000000000000005f82015250565b5f6200095360158362000872565b915062000960826200091d565b602082019050919050565b5f6020820190508181035f830152620009848162000945565b9050919050565b7f4475706c6963617465206f776e657200000000000000000000000000000000005f82015250565b5f620009c1600f8362000872565b9150620009ce826200098b565b602082019050919050565b5f6020820190508181035f830152620009f281620009b3565b9050919050565b7f4e487b71000000000000000000000000000000000000000000000000000000005f52601160045260245ffd5b5f819050919050565b5f62000a3b8262000a26565b91507fffffffffffffffffffffffffffffffffffffffffffffffffffffffffffffffff820362000a705762000a6f620009f9565b5b600182019050919050565b6119248062000a895f395ff3fe608060405234801561000f575f80fd5b5060043610610091575f3560e01c806380f59a651161006457806380f59a651461010d5780638da5cb5b1461013d578063a0e67e2b1461015b578063c01a8c8414610179578063f2fde38b1461019557610091565b806327506f531461009557806333ea3dc8146100b4578063402d4fb4146100e7578063715018a614610103575b5f80fd5b61009d6101b1565b6040516100ab92919061139e565b60405180910390f35b6100ce60048036038101906100c991906113fa565b6102d8565b6040516100de9493929190611443565b60405180910390f35b61010160048036038101906100fc91906114b0565b6103b1565b005b61010b61058b565b005b610127600480360381019061012291906114ee565b61059e565b604051610134919061152c565b60405180910390f35b6101456105c8565b6040516101529190611545565b60405180910390f35b6101636105ef565b6040516101709190611606565b60405180910390f35b610193600480360381019061018e91906113fa565b6106b6565b005b6101af60048036038101906101aa9190611626565b610e3c565b005b5f60606101c8671cdd910a9208ff9860c01b610ec0565b6101dc6741589a5632f930b060c01b610ec0565b6101f06740434911049a523d60c01b610ec0565b600480549050600480805480602002602001604051908101604052809291908181526020015f905b828210156102ca578382905f5260205f2090600402016040518060800160405290815f82015f9054906101000a900473ffffffffffffffffffffffffffffffffffffffff1673ffffffffffffffffffffffffffffffffffffffff1673ffffffffffffffffffffffffffffffffffffffff16815260200160018201548152602001600282015f9054906101000a900460ff1615151515815260200160038201548152505081526020019060010190610218565b505050509050915091509091565b5f805f806102f067a9b61655238583da60c01b610ec0565b61030467bfdf227ff76a9f3b60c01b610ec0565b610318674c11aa6da3cec16c60c01b610ec0565b5f6004868154811061032d5761032c611651565b5b905f5260205f209060040201905061034f67c87995797604ecfc60c01b610ec0565b610363678e48ee44ac0bed9b60c01b610ec0565b805f015f9054906101000a900473ffffffffffffffffffffffffffffffffffffffff168160010154826002015f9054906101000a900460ff1683600301549450945094509450509193509193565b6103c5672198cab8d1d09f3060c01b610ec0565b6103d9676571594fadcddca560c01b610ec0565b6103ed6731edd9be12c487de60c01b610ec0565b5f600480549050905061040a678bf1ca29b119456160c01b610ec0565b61041e67484df524e51785c460c01b610ec0565b600460405180608001604052808573ffffffffffffffffffffffffffffffffffffffff1681526020018481526020015f151581526020015f815250908060018154018082558091505060019003905f5260205f2090600402015f909190919091505f820151815f015f6101000a81548173ffffffffffffffffffffffffffffffffffffffff021916908373ffffffffffffffffffffffffffffffffffffffff160217905550602082015181600101556040820151816002015f6101000a81548160ff02191690831515021790555060608201518160030155505061050c6790db9da387ae5e1760c01b610ec0565b6105206784b9ea4292909e8c60c01b610ec0565b8273ffffffffffffffffffffffffffffffffffffffff16813373ffffffffffffffffffffffffffffffffffffffff167f20e2aa5b328885c653f9a5186dc31820c228934bb356957318771d665ef0a3c38560405161057e919061167e565b60405180910390a4505050565b610593610ec3565b61059c5f610f4a565b565b6005602052815f5260405f20602052805f5260405f205f915091509054906101000a900460ff1681565b5f805f9054906101000a900473ffffffffffffffffffffffffffffffffffffffff16905090565b6060610605670b7db4508e7170e460c01b610ec0565b61061967922a3a2df1f9caca60c01b610ec0565b61062d6733e15ad1bebf043f60c01b610ec0565b60018054806020026020016040519081016040528092919081815260200182805480156106ac57602002820191905f5260205f20905b815f9054906101000a900473ffffffffffffffffffffffffffffffffffffffff1673ffffffffffffffffffffffffffffffffffffffff1681526020019060010190808311610663575b5050505050905090565b6106ca67d6d30251cf18729b60c01b610ec0565b336106df67c7f2eb683852f54960c01b610ec0565b6106f3672175c6031b5e7ea660c01b610ec0565b610707670f87f43f13c2b9b360c01b610ec0565b5f61071c677db7c4e9bd99fd3560c01b610ec0565b610730676221172ea29a099860c01b610ec0565b5f5b600180549050811015610841576107536771c66f83b327014660c01b610ec0565b6107676784300e491bd0d52260c01b610ec0565b8273ffffffffffffffffffffffffffffffffffffffff166001828154811061079257610791611651565b5b905f5260205f20015f9054906101000a900473ffffffffffffffffffffffffffffffffffffffff1673ffffffffffffffffffffffffffffffffffffffff160361081a576107e96760e0152d5c49da4760c01b610ec0565b6107fd67026dab7d35b8318160c01b610ec0565b6001915061081567eb3db01ef437236860c01b610ec0565b610841565b61082e6791999d88f81bb8c460c01b610ec0565b8080610839906116c4565b915050610732565b506108566778c2b929396db63960c01b610ec0565b61086a67cce38ce92401556b60c01b610ec0565b61087e6771916b59436ade5f60c01b610ec0565b806108be576040517f08c379a00000000000000000000000000000000000000000000000000000000081526004016108b590611765565b60405180910390fd5b6108d2678cd20dcd5208f92f60c01b610ec0565b6108e667cf1149b06bc0a39460c01b610ec0565b6108fa6716798f673f7aa09b60c01b610ec0565b61090e676c5e9e8575248fd560c01b610ec0565b82610923679c55b24221cfab4960c01b610ec0565b61093767af009159889dc9f160c01b610ec0565b61094b67b2688c919b8eab5a60c01b610ec0565b61095f67f3f9be1aed40831060c01b610ec0565b60048054905081106109a6576040517f08c379a000000000000000000000000000000000000000000000000000000000815260040161099d906117cd565b60405180910390fd5b6109ba67c22004f1ed60aba360c01b610ec0565b6109ce67fd2ef92499268c5260c01b610ec0565b6109e267da52e4dc706d2a8960c01b610ec0565b6109f6673a43525b835ea06660c01b610ec0565b83610a0b6773a43d3958418b5e60c01b610ec0565b610a1f67c3ccb73932f32d8e60c01b610ec0565b610a3367bf1a02b803c41aad60c01b610ec0565b610a47674f73d8339335850b60c01b610ec0565b60048181548110610a5b57610a5a611651565b5b905f5260205f2090600402016002015f9054906101000a900460ff1615610ab7576040517f08c379a0000000000000000000000000000000000000000000000000000000008152600401610aae90611835565b60405180910390fd5b610acb673c0a4d4bdce9ff5360c01b610ec0565b610adf6753c875f10c35e22360c01b610ec0565b610af3677724d257fa04a11c60c01b610ec0565b610b07671da6bf43d3f6a7a260c01b610ec0565b84610b1c67fdf86e165a45c49660c01b610ec0565b610b3067fb98d1be55b31e7e60c01b610ec0565b610b44676cb3ec68b99d073560c01b610ec0565b610b5867b3e24e247dc26cd560c01b610ec0565b60055f8281526020019081526020015f205f3373ffffffffffffffffffffffffffffffffffffffff1673ffffffffffffffffffffffffffffffffffffffff1681526020019081526020015f205f9054906101000a900460ff1615610bf1576040517f08c379a0000000000000000000000000000000000000000000000000000000008152600401610be89061189d565b60405180910390fd5b610c0567ea127ee498d01e6b60c01b610ec0565b610c1967dcbecd7b01a55bf960c01b610ec0565b610c2d6788bba90172c3ae2360c01b610ec0565b610c4167da2bdda3dac2af7b60c01b610ec0565b610c556744e17fb4f6f9777260c01b610ec0565b610c6967cd85b83fb079201b60c01b610ec0565b5f60048781548110610c7e57610c7d611651565b5b905f5260205f2090600402019050610ca067dde184fa7afde6d460c01b610ec0565b6001816003015f828254610cb491906118bb565b92505081905550610ccf67bc0e97350792703f60c01b610ec0565b600160055f8981526020019081526020015f205f3373ffffffffffffffffffffffffffffffffffffffff1673ffffffffffffffffffffffffffffffffffffffff1681526020019081526020015f205f6101000a81548160ff021916908315150217905550610d476701e0872067f6c0e660c01b610ec0565b610d5b67e5a852a8758f0c4b60c01b610ec0565b863373ffffffffffffffffffffffffffffffffffffffff167f5cbe105e36805f7820e291f799d5794ff948af2a5f664e580382defb6339004160405160405180910390a3610db3671ecbb4a2dc1a765160c01b610ec0565b610dc767cf7bd0b652b61c5660c01b610ec0565b600354816003015410610e1e57610de867385c2871d958a93b60c01b610ec0565b610dfc672a3ddbdccb026aa760c01b610ec0565b610e1067951e0ceb67e49cda60c01b610ec0565b610e198761100b565b610e33565b610e326751db7958679a2bbb60c01b610ec0565b5b50505050505050565b610e44610ec3565b5f73ffffffffffffffffffffffffffffffffffffffff168173ffffffffffffffffffffffffffffffffffffffff1603610eb4575f6040517f1e4fbdf7000000000000000000000000000000000000000000000000000000008152600401610eab9190611545565b60405180910390fd5b610ebd81610f4a565b50565b50565b610ecb61121c565b73ffffffffffffffffffffffffffffffffffffffff16610ee96105c8565b73ffffffffffffffffffffffffffffffffffffffff1614610f4857610f0c61121c565b6040517f118cdaa7000000000000000000000000000000000000000000000000000000008152600401610f3f9190611545565b60405180910390fd5b565b5f805f9054906101000a900473ffffffffffffffffffffffffffffffffffffffff169050815f806101000a81548173ffffffffffffffffffffffffffffffffffffffff021916908373ffffffffffffffffffffffffffffffffffffffff1602179055508173ffffffffffffffffffffffffffffffffffffffff168173ffffffffffffffffffffffffffffffffffffffff167f8be0079c531659141344cd1fd0a4f28419497f9722a3daafe3b4186f6b6457e060405160405180910390a35050565b61101f67374b3d4f7e8ce1c060c01b610ec0565b806110346773a43d3958418b5e60c01b610ec0565b61104867c3ccb73932f32d8e60c01b610ec0565b61105c67bf1a02b803c41aad60c01b610ec0565b611070674f73d8339335850b60c01b610ec0565b6004818154811061108457611083611651565b5b905f5260205f2090600402016002015f9054906101000a900460ff16156110e0576040517f08c379a00000000000000000000000000000000000000000000000000000000081526004016110d790611835565b60405180910390fd5b6110f4673c0a4d4bdce9ff5360c01b610ec0565b6111086753c875f10c35e22360c01b610ec0565b61111c675af869000d6c1ea160c01b610ec0565b611130679732c84fa50b058d60c01b610ec0565b6111446708133a07901ef1b960c01b610ec0565b6111586765d4d2b4bc494cc360c01b610ec0565b5f6004838154811061116d5761116c611651565b5b905f5260205f209060040201905061118f67cad9e72afeccb8dd60c01b610ec0565b6001816002015f6101000a81548160ff0219169083151502179055506111bf67ff0c6d8ba122350460c01b610ec0565b6111d3671c45bdae69c3613960c01b610ec0565b823373ffffffffffffffffffffffffffffffffffffffff167f5445f318f4f5fcfb66592e68e0cc5822aa15664039bd5f0ffde24c5a8142b1ac60405160405180910390a3505050565b5f33905090565b5f819050919050565b61123581611223565b82525050565b5f81519050919050565b5f82825260208201905092915050565b5f819050602082019050919050565b5f73ffffffffffffffffffffffffffffffffffffffff82169050919050565b5f61128d82611264565b9050919050565b61129d81611283565b82525050565b6112ac81611223565b82525050565b5f8115159050919050565b6112c6816112b2565b82525050565b608082015f8201516112e05f850182611294565b5060208201516112f360208501826112a3565b50604082015161130660408501826112bd565b50606082015161131960608501826112a3565b50505050565b5f61132a83836112cc565b60808301905092915050565b5f602082019050919050565b5f61134c8261123b565b6113568185611245565b935061136183611255565b805f5b83811015611391578151611378888261131f565b975061138383611336565b925050600181019050611364565b5085935050505092915050565b5f6040820190506113b15f83018561122c565b81810360208301526113c38184611342565b90509392505050565b5f80fd5b6113d981611223565b81146113e3575f80fd5b50565b5f813590506113f4816113d0565b92915050565b5f6020828403121561140f5761140e6113cc565b5b5f61141c848285016113e6565b91505092915050565b61142e81611283565b82525050565b61143d816112b2565b82525050565b5f6080820190506114565f830187611425565b611463602083018661122c565b6114706040830185611434565b61147d606083018461122c565b95945050505050565b61148f81611283565b8114611499575f80fd5b50565b5f813590506114aa81611486565b92915050565b5f80604083850312156114c6576114c56113cc565b5b5f6114d38582860161149c565b92505060206114e4858286016113e6565b9150509250929050565b5f8060408385031215611504576115036113cc565b5b5f611511858286016113e6565b92505060206115228582860161149c565b9150509250929050565b5f60208201905061153f5f830184611434565b92915050565b5f6020820190506115585f830184611425565b92915050565b5f81519050919050565b5f82825260208201905092915050565b5f819050602082019050919050565b5f6115928383611294565b60208301905092915050565b5f602082019050919050565b5f6115b48261155e565b6115be8185611568565b93506115c983611578565b805f5b838110156115f95781516115e08882611587565b97506115eb8361159e565b9250506001810190506115cc565b5085935050505092915050565b5f6020820190508181035f83015261161e81846115aa565b905092915050565b5f6020828403121561163b5761163a6113cc565b5b5f6116488482850161149c565b91505092915050565b7f4e487b71000000000000000000000000000000000000000000000000000000005f52603260045260245ffd5b5f6020820190506116915f83018461122c565b92915050565b7f4e487b71000000000000000000000000000000000000000000000000000000005f52601160045260245ffd5b5f6116ce82611223565b91507fffffffffffffffffffffffffffffffffffffffffffffffffffffffffffffffff8203611700576116ff611697565b5b600182019050919050565b5f82825260208201905092915050565b7f556e617574686f72697a6564206f7065726174696f6e2e0000000000000000005f82015250565b5f61174f60178361170b565b915061175a8261171b565b602082019050919050565b5f6020820190508181035f83015261177c81611743565b9050919050565b7f5472616e73616374696f6e20646f6573206e6f742065786973740000000000005f82015250565b5f6117b7601a8361170b565b91506117c282611783565b602082019050919050565b5f6020820190508181035f8301526117e4816117ab565b9050919050565b7f5472616e73616374696f6e20616c7265616479206578656375746564000000005f82015250565b5f61181f601c8361170b565b915061182a826117eb565b602082019050919050565b5f6020820190508181035f83015261184c81611813565b9050919050565b7f5472616e73616374696f6e20616c726561647920636f6e6669726d65640000005f82015250565b5f611887601d8361170b565b915061189282611853565b602082019050919050565b5f6020820190508181035f8301526118b48161187b565b9050919050565b5f6118c582611223565b91506118d083611223565b92508282019050808211156118e8576118e7611697565b5b9291505056fea2646970667358221220fb1f7b1dbd35a6cc0766fae309d55eef759f6bfca642bc42b6bf29989dafea8264736f6c63430008140033",
  "linkReferences": {},
  "deployedLinkReferences": {}
}